# 数据库第17周作业加分项目
<center><b> ——探寻Oracle储存结构二进制编码方式 </b></center>

`19336035` `陈梓乐`

Oracle 的二进制编码包含文件头和用户数据两个部分，我们分别来叙述编码方式。

## 总体编码方式
字节与字节之间按顺序排序，字节内部是以两位十六进制（一字节）为间隔低位编码。

## 文件头

参照文章 [oracle数据文件内部BLOCK结构详解](https://blog.csdn.net/CathySun118/article/details/4148663) 可以知道，用户数据头各位意义如下：

|Offset|0|1|2|3|
|-|-|-|-|-|
|009637000|0000A206|01000097|00277D98|040A0000|
||spare1/2_kcbh [0000], frmt[A2], type[06]|rdba|scn|scn[0000], seq[0A], flg[04]|
|009637010|00002B85|00000001|00011DEC|00274438|
||spare3_kcbh[0000], chkval[0000]|typ|seq/obj|csc|
|009637020|00000000|00320002|01000090|001A0003|
||csc|itc[0002], fig[32], fsl[00]|fnx|xid[第一个itl开始]|
|009637030|00000643|00C1AEC1|002B0155|00008000|
||xid|uba||Lck Flag[8000], Scn/Fsc[0000]|
|009637040|002286DA|00100004|00000563|00C1A8DD|
||Scn/ffc|xid[第二个itl开始]||uba|
|009637050|002A00F1|00008000|00228967|00000000|
||uba|Lck Flag[8000], Scn/Fsc[0000]|Scn/ffc||
|009637060|00000000|000E0100|002EFFFF|1CBF160C|
|||flag[00], ntag[01], nrow[000E] [表总览信息开始]|ffre[FFFF], fsbo[002E]|fseo[160C], avsp[1CBF]|
|009637070|00001CBF|1852000E|1BD51C08|1B701960|
||tosp[1CBF], offs[0000]|nrows[000E], row offs[1852]|row offs|
|009637080|1B0D1B3F|19041ADD|1A4C1A7A|19EF1A1E|
||row offs|
|009637090|0000160C|00000000|00000000|00000000|
||row offs|spare space
|0096370A0|00000000|00000000|00000000|00000000|
||spare space|

通过对比解码信息可知上表正确。有关各项参数的解释，请参照[第十六次作业](16.md).

## 表数据部分

上一次作业中已经对十进制的编码进行过解释，故只需解释二进制数据如何得到十进制数据即可，通过观察，容易知道，表数据的原则如下：

- 第一行在文件末尾，最后一行在表数据部分的最开始，即数据在文件中与数据头一起是两端向中间扩充
- 行间数据使用 `,` 分隔，即二进制的 `0xc2`
- 行内数据按以下顺序排列：长度 - 编码，其中编码是低位编码。

例如，考察表最后一行：
```sql
      7934 MILLER     CLERK           7782 23-1月 -82           2100                    10 NEW YORK
```
它的数据为：
```
tl: 48 fb: --H-FL-- lb: 0x0  cc: 9
col  0: [ 3]  c2 50 23
col  1: [ 6]  4d 49 4c 4c 45 52
col  2: [ 5]  43 4c 45 52 4b
col  3: [ 3]  c2 4e 53
col  4: [ 7]  77 b6 01 17 01 01 01
col  5: [ 2]  c2 16
col  6: *NULL*
col  7: [ 2]  c1 0b
col  8: [ 8]  4e 45 57 20 59 4f 52 4b
```
对应二进制编码为：

|offset|0|1|2|3|
|-|-|-|-|-|
|009638670|0309002C|062350C2|4C4C494D|43055245|
|对应十进制|44, 0, 9, 3|194, 80[P], 35, 6|77[M], 73[I], 76[L], 76[L]|69[E], 82[R], 5, 67[C]|
||fb, lb, cc, col  0: [ 3]|c2 50 23; col  1: [ 6]|4d 49 4c 4c|45 52; col  2: [ 5]; 43|
|009638680|4B52454C|534EC203|01B67707|01010117|
|对应十进制|76[L], 69[E], 82[R], 75[K]| 3, 194, 78[N], 83[S]|7, 119[w], 182, 1| 23, 1, 1, 1|
||4c 45 52 4b|col  3: [ 3]  c2 4e 53|col  4: [ 7]  77 b6 01| 17 01 01 01|
|009638690|FF16C202|080BC102|2057454E|4B524F59|
|对应十进制|2, 194, 22, 255|2, 193, 11, 8|78[N], 69[E], 87[W], 32| 89[Y], 79[O], 82[R], 75[K]]|
||col  5: [ 2]  c2 16; col  6: *NULL*|col  7: [ 2]  c1 0b; col  8: [ 8]| 4e 45 57 20 59 4f 52 4b|

显然上述解释正确。这里十六进制的低位编码用到了下面的简单程序：
@import "../src/0x20d.py"

## 附录
<u> 二进制原文 </u>
@import "../data/hex.in"

<u> 十进制解码原文 </u>
@import "../data/decode.out"