<!DOCTYPE html><html><head>
      <title>17.5</title>
      <meta charset="utf-8">
      <meta name="viewport" content="width=device-width, initial-scale=1.0">
      
      <link rel="stylesheet" href="file:///c:\Users\Czile\.vscode\extensions\shd101wyy.markdown-preview-enhanced-0.6.3\node_modules\@shd101wyy\mume\dependencies\katex\katex.min.css">
      
      
      
      
      
      
      
      
      
      <style>
      /**
 * prism.js Github theme based on GitHub's theme.
 * @author Sam Clarke
 */
code[class*="language-"],
pre[class*="language-"] {
  color: #333;
  background: none;
  font-family: Consolas, "Liberation Mono", Menlo, Courier, monospace;
  text-align: left;
  white-space: pre;
  word-spacing: normal;
  word-break: normal;
  word-wrap: normal;
  line-height: 1.4;

  -moz-tab-size: 8;
  -o-tab-size: 8;
  tab-size: 8;

  -webkit-hyphens: none;
  -moz-hyphens: none;
  -ms-hyphens: none;
  hyphens: none;
}

/* Code blocks */
pre[class*="language-"] {
  padding: .8em;
  overflow: auto;
  /* border: 1px solid #ddd; */
  border-radius: 3px;
  /* background: #fff; */
  background: #f5f5f5;
}

/* Inline code */
:not(pre) > code[class*="language-"] {
  padding: .1em;
  border-radius: .3em;
  white-space: normal;
  background: #f5f5f5;
}

.token.comment,
.token.blockquote {
  color: #969896;
}

.token.cdata {
  color: #183691;
}

.token.doctype,
.token.punctuation,
.token.variable,
.token.macro.property {
  color: #333;
}

.token.operator,
.token.important,
.token.keyword,
.token.rule,
.token.builtin {
  color: #a71d5d;
}

.token.string,
.token.url,
.token.regex,
.token.attr-value {
  color: #183691;
}

.token.property,
.token.number,
.token.boolean,
.token.entity,
.token.atrule,
.token.constant,
.token.symbol,
.token.command,
.token.code {
  color: #0086b3;
}

.token.tag,
.token.selector,
.token.prolog {
  color: #63a35c;
}

.token.function,
.token.namespace,
.token.pseudo-element,
.token.class,
.token.class-name,
.token.pseudo-class,
.token.id,
.token.url-reference .token.variable,
.token.attr-name {
  color: #795da3;
}

.token.entity {
  cursor: help;
}

.token.title,
.token.title .token.punctuation {
  font-weight: bold;
  color: #1d3e81;
}

.token.list {
  color: #ed6a43;
}

.token.inserted {
  background-color: #eaffea;
  color: #55a532;
}

.token.deleted {
  background-color: #ffecec;
  color: #bd2c00;
}

.token.bold {
  font-weight: bold;
}

.token.italic {
  font-style: italic;
}


/* JSON */
.language-json .token.property {
  color: #183691;
}

.language-markup .token.tag .token.punctuation {
  color: #333;
}

/* CSS */
code.language-css,
.language-css .token.function {
  color: #0086b3;
}

/* YAML */
.language-yaml .token.atrule {
  color: #63a35c;
}

code.language-yaml {
  color: #183691;
}

/* Ruby */
.language-ruby .token.function {
  color: #333;
}

/* Markdown */
.language-markdown .token.url {
  color: #795da3;
}

/* Makefile */
.language-makefile .token.symbol {
  color: #795da3;
}

.language-makefile .token.variable {
  color: #183691;
}

.language-makefile .token.builtin {
  color: #0086b3;
}

/* Bash */
.language-bash .token.keyword {
  color: #0086b3;
}

/* highlight */
pre[data-line] {
  position: relative;
  padding: 1em 0 1em 3em;
}
pre[data-line] .line-highlight-wrapper {
  position: absolute;
  top: 0;
  left: 0;
  background-color: transparent;
  display: block;
  width: 100%;
}

pre[data-line] .line-highlight {
  position: absolute;
  left: 0;
  right: 0;
  padding: inherit 0;
  margin-top: 1em;
  background: hsla(24, 20%, 50%,.08);
  background: linear-gradient(to right, hsla(24, 20%, 50%,.1) 70%, hsla(24, 20%, 50%,0));
  pointer-events: none;
  line-height: inherit;
  white-space: pre;
}

pre[data-line] .line-highlight:before, 
pre[data-line] .line-highlight[data-end]:after {
  content: attr(data-start);
  position: absolute;
  top: .4em;
  left: .6em;
  min-width: 1em;
  padding: 0 .5em;
  background-color: hsla(24, 20%, 50%,.4);
  color: hsl(24, 20%, 95%);
  font: bold 65%/1.5 sans-serif;
  text-align: center;
  vertical-align: .3em;
  border-radius: 999px;
  text-shadow: none;
  box-shadow: 0 1px white;
}

pre[data-line] .line-highlight[data-end]:after {
  content: attr(data-end);
  top: auto;
  bottom: .4em;
}html body{font-family:"Helvetica Neue",Helvetica,"Segoe UI",Arial,freesans,sans-serif;font-size:16px;line-height:1.6;color:#333;background-color:#fff;overflow:initial;box-sizing:border-box;word-wrap:break-word}html body>:first-child{margin-top:0}html body h1,html body h2,html body h3,html body h4,html body h5,html body h6{line-height:1.2;margin-top:1em;margin-bottom:16px;color:#000}html body h1{font-size:2.25em;font-weight:300;padding-bottom:.3em}html body h2{font-size:1.75em;font-weight:400;padding-bottom:.3em}html body h3{font-size:1.5em;font-weight:500}html body h4{font-size:1.25em;font-weight:600}html body h5{font-size:1.1em;font-weight:600}html body h6{font-size:1em;font-weight:600}html body h1,html body h2,html body h3,html body h4,html body h5{font-weight:600}html body h5{font-size:1em}html body h6{color:#5c5c5c}html body strong{color:#000}html body del{color:#5c5c5c}html body a:not([href]){color:inherit;text-decoration:none}html body a{color:#08c;text-decoration:none}html body a:hover{color:#00a3f5;text-decoration:none}html body img{max-width:100%}html body>p{margin-top:0;margin-bottom:16px;word-wrap:break-word}html body>ul,html body>ol{margin-bottom:16px}html body ul,html body ol{padding-left:2em}html body ul.no-list,html body ol.no-list{padding:0;list-style-type:none}html body ul ul,html body ul ol,html body ol ol,html body ol ul{margin-top:0;margin-bottom:0}html body li{margin-bottom:0}html body li.task-list-item{list-style:none}html body li>p{margin-top:0;margin-bottom:0}html body .task-list-item-checkbox{margin:0 .2em .25em -1.8em;vertical-align:middle}html body .task-list-item-checkbox:hover{cursor:pointer}html body blockquote{margin:16px 0;font-size:inherit;padding:0 15px;color:#5c5c5c;background-color:#f0f0f0;border-left:4px solid #d6d6d6}html body blockquote>:first-child{margin-top:0}html body blockquote>:last-child{margin-bottom:0}html body hr{height:4px;margin:32px 0;background-color:#d6d6d6;border:0 none}html body table{margin:10px 0 15px 0;border-collapse:collapse;border-spacing:0;display:block;width:100%;overflow:auto;word-break:normal;word-break:keep-all}html body table th{font-weight:bold;color:#000}html body table td,html body table th{border:1px solid #d6d6d6;padding:6px 13px}html body dl{padding:0}html body dl dt{padding:0;margin-top:16px;font-size:1em;font-style:italic;font-weight:bold}html body dl dd{padding:0 16px;margin-bottom:16px}html body code{font-family:Menlo,Monaco,Consolas,'Courier New',monospace;font-size:.85em !important;color:#000;background-color:#f0f0f0;border-radius:3px;padding:.2em 0}html body code::before,html body code::after{letter-spacing:-0.2em;content:"\00a0"}html body pre>code{padding:0;margin:0;font-size:.85em !important;word-break:normal;white-space:pre;background:transparent;border:0}html body .highlight{margin-bottom:16px}html body .highlight pre,html body pre{padding:1em;overflow:auto;font-size:.85em !important;line-height:1.45;border:#d6d6d6;border-radius:3px}html body .highlight pre{margin-bottom:0;word-break:normal}html body pre code,html body pre tt{display:inline;max-width:initial;padding:0;margin:0;overflow:initial;line-height:inherit;word-wrap:normal;background-color:transparent;border:0}html body pre code:before,html body pre tt:before,html body pre code:after,html body pre tt:after{content:normal}html body p,html body blockquote,html body ul,html body ol,html body dl,html body pre{margin-top:0;margin-bottom:16px}html body kbd{color:#000;border:1px solid #d6d6d6;border-bottom:2px solid #c7c7c7;padding:2px 4px;background-color:#f0f0f0;border-radius:3px}@media print{html body{background-color:#fff}html body h1,html body h2,html body h3,html body h4,html body h5,html body h6{color:#000;page-break-after:avoid}html body blockquote{color:#5c5c5c}html body pre{page-break-inside:avoid}html body table{display:table}html body img{display:block;max-width:100%;max-height:100%}html body pre,html body code{word-wrap:break-word;white-space:pre}}.markdown-preview{width:100%;height:100%;box-sizing:border-box}.markdown-preview .pagebreak,.markdown-preview .newpage{page-break-before:always}.markdown-preview pre.line-numbers{position:relative;padding-left:3.8em;counter-reset:linenumber}.markdown-preview pre.line-numbers>code{position:relative}.markdown-preview pre.line-numbers .line-numbers-rows{position:absolute;pointer-events:none;top:1em;font-size:100%;left:0;width:3em;letter-spacing:-1px;border-right:1px solid #999;-webkit-user-select:none;-moz-user-select:none;-ms-user-select:none;user-select:none}.markdown-preview pre.line-numbers .line-numbers-rows>span{pointer-events:none;display:block;counter-increment:linenumber}.markdown-preview pre.line-numbers .line-numbers-rows>span:before{content:counter(linenumber);color:#999;display:block;padding-right:.8em;text-align:right}.markdown-preview .mathjax-exps .MathJax_Display{text-align:center !important}.markdown-preview:not([for="preview"]) .code-chunk .btn-group{display:none}.markdown-preview:not([for="preview"]) .code-chunk .status{display:none}.markdown-preview:not([for="preview"]) .code-chunk .output-div{margin-bottom:16px}.scrollbar-style::-webkit-scrollbar{width:8px}.scrollbar-style::-webkit-scrollbar-track{border-radius:10px;background-color:transparent}.scrollbar-style::-webkit-scrollbar-thumb{border-radius:5px;background-color:rgba(150,150,150,0.66);border:4px solid rgba(150,150,150,0.66);background-clip:content-box}html body[for="html-export"]:not([data-presentation-mode]){position:relative;width:100%;height:100%;top:0;left:0;margin:0;padding:0;overflow:auto}html body[for="html-export"]:not([data-presentation-mode]) .markdown-preview{position:relative;top:0}@media screen and (min-width:914px){html body[for="html-export"]:not([data-presentation-mode]) .markdown-preview{padding:2em calc(50% - 457px + 2em)}}@media screen and (max-width:914px){html body[for="html-export"]:not([data-presentation-mode]) .markdown-preview{padding:2em}}@media screen and (max-width:450px){html body[for="html-export"]:not([data-presentation-mode]) .markdown-preview{font-size:14px !important;padding:1em}}@media print{html body[for="html-export"]:not([data-presentation-mode]) #sidebar-toc-btn{display:none}}html body[for="html-export"]:not([data-presentation-mode]) #sidebar-toc-btn{position:fixed;bottom:8px;left:8px;font-size:28px;cursor:pointer;color:inherit;z-index:99;width:32px;text-align:center;opacity:.4}html body[for="html-export"]:not([data-presentation-mode])[html-show-sidebar-toc] #sidebar-toc-btn{opacity:1}html body[for="html-export"]:not([data-presentation-mode])[html-show-sidebar-toc] .md-sidebar-toc{position:fixed;top:0;left:0;width:300px;height:100%;padding:32px 0 48px 0;font-size:14px;box-shadow:0 0 4px rgba(150,150,150,0.33);box-sizing:border-box;overflow:auto;background-color:inherit}html body[for="html-export"]:not([data-presentation-mode])[html-show-sidebar-toc] .md-sidebar-toc::-webkit-scrollbar{width:8px}html body[for="html-export"]:not([data-presentation-mode])[html-show-sidebar-toc] .md-sidebar-toc::-webkit-scrollbar-track{border-radius:10px;background-color:transparent}html body[for="html-export"]:not([data-presentation-mode])[html-show-sidebar-toc] .md-sidebar-toc::-webkit-scrollbar-thumb{border-radius:5px;background-color:rgba(150,150,150,0.66);border:4px solid rgba(150,150,150,0.66);background-clip:content-box}html body[for="html-export"]:not([data-presentation-mode])[html-show-sidebar-toc] .md-sidebar-toc a{text-decoration:none}html body[for="html-export"]:not([data-presentation-mode])[html-show-sidebar-toc] .md-sidebar-toc ul{padding:0 1.6em;margin-top:.8em}html body[for="html-export"]:not([data-presentation-mode])[html-show-sidebar-toc] .md-sidebar-toc li{margin-bottom:.8em}html body[for="html-export"]:not([data-presentation-mode])[html-show-sidebar-toc] .md-sidebar-toc ul{list-style-type:none}html body[for="html-export"]:not([data-presentation-mode])[html-show-sidebar-toc] .markdown-preview{left:300px;width:calc(100% -  300px);padding:2em calc(50% - 457px -  150px);margin:0;box-sizing:border-box}@media screen and (max-width:1274px){html body[for="html-export"]:not([data-presentation-mode])[html-show-sidebar-toc] .markdown-preview{padding:2em}}@media screen and (max-width:450px){html body[for="html-export"]:not([data-presentation-mode])[html-show-sidebar-toc] .markdown-preview{width:100%}}html body[for="html-export"]:not([data-presentation-mode]):not([html-show-sidebar-toc]) .markdown-preview{left:50%;transform:translateX(-50%)}html body[for="html-export"]:not([data-presentation-mode]):not([html-show-sidebar-toc]) .md-sidebar-toc{display:none}
/* Please visit the URL below for more information: */
/*   https://shd101wyy.github.io/markdown-preview-enhanced/#/customize-css */

      </style>
    </head>
    <body for="html-export">
      <div class="mume markdown-preview  ">
      <h1 class="mume-header" id="%E6%95%B0%E6%8D%AE%E5%BA%93%E7%AC%AC17%E5%91%A8%E4%BD%9C%E4%B8%9A%E5%8A%A0%E5%88%86%E9%A1%B9%E7%9B%AE">&#x6570;&#x636E;&#x5E93;&#x7B2C;17&#x5468;&#x4F5C;&#x4E1A;&#x52A0;&#x5206;&#x9879;&#x76EE;</h1>

<center><b> &#x2014;&#x2014;&#x63A2;&#x5BFB;Oracle&#x50A8;&#x5B58;&#x7ED3;&#x6784;&#x4E8C;&#x8FDB;&#x5236;&#x7F16;&#x7801;&#x65B9;&#x5F0F; </b></center>
<p><code>19336035</code> <code>&#x9648;&#x6893;&#x4E50;</code></p>
<p>Oracle &#x7684;&#x4E8C;&#x8FDB;&#x5236;&#x7F16;&#x7801;&#x5305;&#x542B;&#x6587;&#x4EF6;&#x5934;&#x548C;&#x7528;&#x6237;&#x6570;&#x636E;&#x4E24;&#x4E2A;&#x90E8;&#x5206;&#xFF0C;&#x6211;&#x4EEC;&#x5206;&#x522B;&#x6765;&#x53D9;&#x8FF0;&#x7F16;&#x7801;&#x65B9;&#x5F0F;&#x3002;</p>
<h2 class="mume-header" id="%E6%80%BB%E4%BD%93%E7%BC%96%E7%A0%81%E6%96%B9%E5%BC%8F">&#x603B;&#x4F53;&#x7F16;&#x7801;&#x65B9;&#x5F0F;</h2>

<p>&#x5B57;&#x8282;&#x4E0E;&#x5B57;&#x8282;&#x4E4B;&#x95F4;&#x6309;&#x987A;&#x5E8F;&#x6392;&#x5E8F;&#xFF0C;&#x5B57;&#x8282;&#x5185;&#x90E8;&#x662F;&#x4EE5;&#x4E24;&#x4F4D;&#x5341;&#x516D;&#x8FDB;&#x5236;&#xFF08;&#x4E00;&#x5B57;&#x8282;&#xFF09;&#x4E3A;&#x95F4;&#x9694;&#x4F4E;&#x4F4D;&#x7F16;&#x7801;&#x3002;</p>
<h2 class="mume-header" id="%E6%96%87%E4%BB%B6%E5%A4%B4">&#x6587;&#x4EF6;&#x5934;</h2>

<p>&#x53C2;&#x7167;&#x6587;&#x7AE0; <a href="https://blog.csdn.net/CathySun118/article/details/4148663">oracle&#x6570;&#x636E;&#x6587;&#x4EF6;&#x5185;&#x90E8;BLOCK&#x7ED3;&#x6784;&#x8BE6;&#x89E3;</a> &#x53EF;&#x4EE5;&#x77E5;&#x9053;&#xFF0C;&#x7528;&#x6237;&#x6570;&#x636E;&#x5934;&#x5404;&#x4F4D;&#x610F;&#x4E49;&#x5982;&#x4E0B;&#xFF1A;</p>
<table>
<thead>
<tr>
<th>Offset</th>
<th>0</th>
<th>1</th>
<th>2</th>
<th>3</th>
</tr>
</thead>
<tbody>
<tr>
<td>009637000</td>
<td>0000A206</td>
<td>01000097</td>
<td>00277D98</td>
<td>040A0000</td>
</tr>
<tr>
<td></td>
<td>spare1/2_kcbh [0000], frmt[A2], type[06]</td>
<td>rdba</td>
<td>scn</td>
<td>scn[0000], seq[0A], flg[04]</td>
</tr>
<tr>
<td>009637010</td>
<td>00002B85</td>
<td>00000001</td>
<td>00011DEC</td>
<td>00274438</td>
</tr>
<tr>
<td></td>
<td>spare3_kcbh[0000], chkval[0000]</td>
<td>typ</td>
<td>seq/obj</td>
<td>csc</td>
</tr>
<tr>
<td>009637020</td>
<td>00000000</td>
<td>00320002</td>
<td>01000090</td>
<td>001A0003</td>
</tr>
<tr>
<td></td>
<td>csc</td>
<td>itc[0002], fig[32], fsl[00]</td>
<td>fnx</td>
<td>xid[&#x7B2C;&#x4E00;&#x4E2A;itl&#x5F00;&#x59CB;]</td>
</tr>
<tr>
<td>009637030</td>
<td>00000643</td>
<td>00C1AEC1</td>
<td>002B0155</td>
<td>00008000</td>
</tr>
<tr>
<td></td>
<td>xid</td>
<td colspan="2">uba</td>

<td>Lck Flag[8000], Scn/Fsc[0000]</td>
</tr>
<tr>
<td>009637040</td>
<td>002286DA</td>
<td>00100004</td>
<td>00000563</td>
<td>00C1A8DD</td>
</tr>
<tr>
<td></td>
<td>Scn/ffc</td>
<td colspan="2">xid[&#x7B2C;&#x4E8C;&#x4E2A;itl&#x5F00;&#x59CB;]</td>

<td>uba</td>
</tr>
<tr>
<td>009637050</td>
<td>002A00F1</td>
<td>00008000</td>
<td>00228967</td>
<td>00000000</td>
</tr>
<tr>
<td></td>
<td>uba</td>
<td>Lck Flag[8000], Scn/Fsc[0000]</td>
<td colspan="2">Scn/ffc</td>

</tr>
<tr>
<td>009637060</td>
<td>00000000</td>
<td>000E0100</td>
<td>002EFFFF</td>
<td>1CBF160C</td>
</tr>
<tr>
<td colspan="2"></td>

<td>flag[00], ntag[01], nrow[000E] [&#x8868;&#x603B;&#x89C8;&#x4FE1;&#x606F;&#x5F00;&#x59CB;]</td>
<td>ffre[FFFF], fsbo[002E]</td>
<td>fseo[160C], avsp[1CBF]</td>
</tr>
<tr>
<td>009637070</td>
<td>00001CBF</td>
<td>1852000E</td>
<td>1BD51C08</td>
<td>1B701960</td>
</tr>
<tr>
<td></td>
<td>tosp[1CBF], offs[0000]</td>
<td>nrows[000E], row offs[1852]</td>
<td colspan="2">row offs</td>

</tr>
<tr>
<td>009637080</td>
<td>1B0D1B3F</td>
<td>19041ADD</td>
<td>1A4C1A7A</td>
<td>19EF1A1E</td>
</tr>
<tr>
<td></td>
<td colspan="4">row offs</td>



</tr>
<tr>
<td>009637090</td>
<td>0000160C</td>
<td>00000000</td>
<td>00000000</td>
<td>00000000</td>
</tr>
<tr>
<td></td>
<td>row offs</td>
<td colspan="3">spare space</td>


</tr>
<tr>
<td>0096370A0</td>
<td>00000000</td>
<td>00000000</td>
<td>00000000</td>
<td>00000000</td>
</tr>
<tr>
<td></td>
<td colspan="4">spare space</td>



</tr>
</tbody>
</table>
<p>&#x901A;&#x8FC7;&#x5BF9;&#x6BD4;&#x89E3;&#x7801;&#x4FE1;&#x606F;&#x53EF;&#x77E5;&#x4E0A;&#x8868;&#x6B63;&#x786E;&#x3002;&#x6709;&#x5173;&#x5404;&#x9879;&#x53C2;&#x6570;&#x7684;&#x89E3;&#x91CA;&#xFF0C;&#x8BF7;&#x53C2;&#x7167;<a href="16.md">&#x7B2C;&#x5341;&#x516D;&#x6B21;&#x4F5C;&#x4E1A;</a>.</p>
<h2 class="mume-header" id="%E8%A1%A8%E6%95%B0%E6%8D%AE%E9%83%A8%E5%88%86">&#x8868;&#x6570;&#x636E;&#x90E8;&#x5206;</h2>

<p>&#x4E0A;&#x4E00;&#x6B21;&#x4F5C;&#x4E1A;&#x4E2D;&#x5DF2;&#x7ECF;&#x5BF9;&#x5341;&#x8FDB;&#x5236;&#x7684;&#x7F16;&#x7801;&#x8FDB;&#x884C;&#x8FC7;&#x89E3;&#x91CA;&#xFF0C;&#x6545;&#x53EA;&#x9700;&#x89E3;&#x91CA;&#x4E8C;&#x8FDB;&#x5236;&#x6570;&#x636E;&#x5982;&#x4F55;&#x5F97;&#x5230;&#x5341;&#x8FDB;&#x5236;&#x6570;&#x636E;&#x5373;&#x53EF;&#xFF0C;&#x901A;&#x8FC7;&#x89C2;&#x5BDF;&#xFF0C;&#x5BB9;&#x6613;&#x77E5;&#x9053;&#xFF0C;&#x8868;&#x6570;&#x636E;&#x7684;&#x539F;&#x5219;&#x5982;&#x4E0B;&#xFF1A;</p>
<ul>
<li>&#x7B2C;&#x4E00;&#x884C;&#x5728;&#x6587;&#x4EF6;&#x672B;&#x5C3E;&#xFF0C;&#x6700;&#x540E;&#x4E00;&#x884C;&#x5728;&#x8868;&#x6570;&#x636E;&#x90E8;&#x5206;&#x7684;&#x6700;&#x5F00;&#x59CB;&#xFF0C;&#x5373;&#x6570;&#x636E;&#x5728;&#x6587;&#x4EF6;&#x4E2D;&#x4E0E;&#x6570;&#x636E;&#x5934;&#x4E00;&#x8D77;&#x662F;&#x4E24;&#x7AEF;&#x5411;&#x4E2D;&#x95F4;&#x6269;&#x5145;</li>
<li>&#x884C;&#x95F4;&#x6570;&#x636E;&#x4F7F;&#x7528; <code>,</code> &#x5206;&#x9694;&#xFF0C;&#x5373;&#x4E8C;&#x8FDB;&#x5236;&#x7684; <code>0xc2</code></li>
<li>&#x884C;&#x5185;&#x6570;&#x636E;&#x6309;&#x4EE5;&#x4E0B;&#x987A;&#x5E8F;&#x6392;&#x5217;&#xFF1A;&#x957F;&#x5EA6; - &#x7F16;&#x7801;&#xFF0C;&#x5176;&#x4E2D;&#x7F16;&#x7801;&#x662F;&#x4F4E;&#x4F4D;&#x7F16;&#x7801;&#x3002;</li>
</ul>
<p>&#x4F8B;&#x5982;&#xFF0C;&#x8003;&#x5BDF;&#x8868;&#x6700;&#x540E;&#x4E00;&#x884C;&#xFF1A;</p>
<pre data-role="codeBlock" data-info="sql" class="language-sql">      <span class="token number">7934</span> MILLER     CLERK           <span class="token number">7782</span> <span class="token number">23</span><span class="token operator">-</span><span class="token number">1</span>&#x6708; <span class="token operator">-</span><span class="token number">82</span>           <span class="token number">2100</span>                    <span class="token number">10</span> NEW YORK
</pre><p>&#x5B83;&#x7684;&#x6570;&#x636E;&#x4E3A;&#xFF1A;</p>
<pre data-role="codeBlock" data-info class="language-"><code>tl: 48 fb: --H-FL-- lb: 0x0  cc: 9
col  0: [ 3]  c2 50 23
col  1: [ 6]  4d 49 4c 4c 45 52
col  2: [ 5]  43 4c 45 52 4b
col  3: [ 3]  c2 4e 53
col  4: [ 7]  77 b6 01 17 01 01 01
col  5: [ 2]  c2 16
col  6: *NULL*
col  7: [ 2]  c1 0b
col  8: [ 8]  4e 45 57 20 59 4f 52 4b
</code></pre><p>&#x5BF9;&#x5E94;&#x4E8C;&#x8FDB;&#x5236;&#x7F16;&#x7801;&#x4E3A;&#xFF1A;</p>
<table>
<thead>
<tr>
<th>offset</th>
<th>0</th>
<th>1</th>
<th>2</th>
<th>3</th>
</tr>
</thead>
<tbody>
<tr>
<td>009638670</td>
<td>0309002C</td>
<td>062350C2</td>
<td>4C4C494D</td>
<td>43055245</td>
</tr>
<tr>
<td>&#x5BF9;&#x5E94;&#x5341;&#x8FDB;&#x5236;</td>
<td>44, 0, 9, 3</td>
<td>194, 80[P], 35, 6</td>
<td>77[M], 73[I], 76[L], 76[L]</td>
<td>69[E], 82[R], 5, 67[C]</td>
</tr>
<tr>
<td></td>
<td>fb, lb, cc, col  0: [ 3]</td>
<td>c2 50 23; col  1: [ 6]</td>
<td>4d 49 4c 4c</td>
<td>45 52; col  2: [ 5]; 43</td>
</tr>
<tr>
<td>009638680</td>
<td>4B52454C</td>
<td>534EC203</td>
<td>01B67707</td>
<td>01010117</td>
</tr>
<tr>
<td>&#x5BF9;&#x5E94;&#x5341;&#x8FDB;&#x5236;</td>
<td>76[L], 69[E], 82[R], 75[K]</td>
<td>3, 194, 78[N], 83[S]</td>
<td>7, 119[w], 182, 1</td>
<td>23, 1, 1, 1</td>
</tr>
<tr>
<td></td>
<td>4c 45 52 4b</td>
<td>col  3: [ 3]  c2 4e 53</td>
<td>col  4: [ 7]  77 b6 01</td>
<td>17 01 01 01</td>
</tr>
<tr>
<td>009638690</td>
<td>FF16C202</td>
<td>080BC102</td>
<td>2057454E</td>
<td>4B524F59</td>
</tr>
<tr>
<td>&#x5BF9;&#x5E94;&#x5341;&#x8FDB;&#x5236;</td>
<td>2, 194, 22, 255</td>
<td>2, 193, 11, 8</td>
<td>78[N], 69[E], 87[W], 32</td>
<td>89[Y], 79[O], 82[R], 75[K]]</td>
</tr>
<tr>
<td></td>
<td>col  5: [ 2]  c2 16; col  6: <em>NULL</em></td>
<td>col  7: [ 2]  c1 0b; col  8: [ 8]</td>
<td colspan="2">4e 45 57 20 59 4f 52 4b</td>

</tr>
</tbody>
</table>
<p>&#x663E;&#x7136;&#x4E0A;&#x8FF0;&#x89E3;&#x91CA;&#x6B63;&#x786E;&#x3002;&#x8FD9;&#x91CC;&#x5341;&#x516D;&#x8FDB;&#x5236;&#x7684;&#x4F4E;&#x4F4D;&#x7F16;&#x7801;&#x7528;&#x5230;&#x4E86;&#x4E0B;&#x9762;&#x7684;&#x7B80;&#x5355;&#x7A0B;&#x5E8F;&#xFF1A;</p>
<pre data-role="codeBlock" data-info="py" class="language-python"><span class="token keyword keyword-import">import</span> os

data <span class="token operator">=</span> <span class="token boolean">None</span>
decode <span class="token operator">=</span> <span class="token punctuation">[</span><span class="token punctuation">]</span>
<span class="token keyword keyword-with">with</span> <span class="token builtin">open</span><span class="token punctuation">(</span><span class="token string">&apos;../data/hex.in&apos;</span><span class="token punctuation">)</span> <span class="token keyword keyword-as">as</span> f<span class="token punctuation">:</span>
    data <span class="token operator">=</span> f<span class="token punctuation">.</span>read<span class="token punctuation">(</span><span class="token punctuation">)</span><span class="token punctuation">.</span>split<span class="token punctuation">(</span><span class="token string">&apos;\n&apos;</span><span class="token punctuation">)</span>
data <span class="token operator">=</span> <span class="token punctuation">[</span>i<span class="token punctuation">.</span>split<span class="token punctuation">(</span><span class="token string">&apos; &apos;</span><span class="token punctuation">)</span><span class="token punctuation">[</span><span class="token number">1</span><span class="token punctuation">:</span><span class="token number">5</span><span class="token punctuation">]</span> <span class="token keyword keyword-for">for</span> i <span class="token keyword keyword-in">in</span> data<span class="token punctuation">]</span>
<span class="token keyword keyword-for">for</span> i <span class="token keyword keyword-in">in</span> data<span class="token punctuation">:</span>
    decode<span class="token punctuation">.</span>append<span class="token punctuation">(</span><span class="token punctuation">[</span><span class="token punctuation">]</span><span class="token punctuation">)</span>
    <span class="token keyword keyword-for">for</span> j <span class="token keyword keyword-in">in</span> i<span class="token punctuation">:</span>
        <span class="token keyword keyword-for">for</span> k <span class="token keyword keyword-in">in</span> <span class="token builtin">range</span><span class="token punctuation">(</span><span class="token number">0</span><span class="token punctuation">,</span> <span class="token number">8</span><span class="token punctuation">,</span> <span class="token number">2</span><span class="token punctuation">)</span><span class="token punctuation">:</span>
            decode<span class="token punctuation">[</span><span class="token operator">-</span><span class="token number">1</span><span class="token punctuation">]</span><span class="token punctuation">.</span>append<span class="token punctuation">(</span><span class="token builtin">int</span><span class="token punctuation">(</span>j<span class="token punctuation">[</span>k<span class="token punctuation">:</span>k<span class="token operator">+</span><span class="token number">2</span><span class="token punctuation">]</span><span class="token punctuation">,</span> <span class="token number">16</span><span class="token punctuation">)</span><span class="token punctuation">)</span>
            <span class="token keyword keyword-if">if</span> <span class="token string">&apos;a&apos;</span> <span class="token operator">&lt;=</span> <span class="token builtin">chr</span><span class="token punctuation">(</span>decode<span class="token punctuation">[</span><span class="token operator">-</span><span class="token number">1</span><span class="token punctuation">]</span><span class="token punctuation">[</span><span class="token operator">-</span><span class="token number">1</span><span class="token punctuation">]</span><span class="token punctuation">)</span> <span class="token operator">&lt;=</span> <span class="token string">&apos;z&apos;</span> <span class="token keyword keyword-or">or</span> <span class="token string">&apos;A&apos;</span> <span class="token operator">&lt;=</span>  <span class="token builtin">chr</span><span class="token punctuation">(</span>decode<span class="token punctuation">[</span><span class="token operator">-</span><span class="token number">1</span><span class="token punctuation">]</span><span class="token punctuation">[</span><span class="token operator">-</span><span class="token number">1</span><span class="token punctuation">]</span><span class="token punctuation">)</span> <span class="token operator">&lt;=</span> <span class="token string">&apos;Z&apos;</span> <span class="token keyword keyword-or">or</span> <span class="token string">&apos;0&apos;</span> <span class="token operator">&lt;=</span>  <span class="token builtin">chr</span><span class="token punctuation">(</span>decode<span class="token punctuation">[</span><span class="token operator">-</span><span class="token number">1</span><span class="token punctuation">]</span><span class="token punctuation">[</span><span class="token operator">-</span><span class="token number">1</span><span class="token punctuation">]</span><span class="token punctuation">)</span> <span class="token operator">&lt;=</span> <span class="token string">&apos;9&apos;</span><span class="token punctuation">:</span>
                decode<span class="token punctuation">[</span><span class="token operator">-</span><span class="token number">1</span><span class="token punctuation">]</span><span class="token punctuation">[</span><span class="token operator">-</span><span class="token number">1</span><span class="token punctuation">]</span> <span class="token operator">=</span> <span class="token string-interpolation"><span class="token string">f&apos;</span><span class="token interpolation"><span class="token punctuation">{</span>decode<span class="token punctuation">[</span><span class="token operator">-</span><span class="token number">1</span><span class="token punctuation">]</span><span class="token punctuation">[</span><span class="token operator">-</span><span class="token number">1</span><span class="token punctuation">]</span><span class="token punctuation">}</span></span><span class="token string">[</span><span class="token interpolation"><span class="token punctuation">{</span><span class="token builtin">chr</span><span class="token punctuation">(</span>decode<span class="token punctuation">[</span><span class="token operator">-</span><span class="token number">1</span><span class="token punctuation">]</span><span class="token punctuation">[</span><span class="token operator">-</span><span class="token number">1</span><span class="token punctuation">]</span><span class="token punctuation">)</span><span class="token punctuation">}</span></span><span class="token string">]&apos;</span></span>
        decode<span class="token punctuation">[</span><span class="token operator">-</span><span class="token number">1</span><span class="token punctuation">]</span><span class="token punctuation">[</span><span class="token operator">-</span><span class="token number">1</span><span class="token punctuation">]</span><span class="token punctuation">,</span> decode<span class="token punctuation">[</span><span class="token operator">-</span><span class="token number">1</span><span class="token punctuation">]</span><span class="token punctuation">[</span><span class="token operator">-</span><span class="token number">4</span><span class="token punctuation">]</span> <span class="token operator">=</span> decode<span class="token punctuation">[</span><span class="token operator">-</span><span class="token number">1</span><span class="token punctuation">]</span><span class="token punctuation">[</span><span class="token operator">-</span><span class="token number">4</span><span class="token punctuation">]</span><span class="token punctuation">,</span> decode<span class="token punctuation">[</span><span class="token operator">-</span><span class="token number">1</span><span class="token punctuation">]</span><span class="token punctuation">[</span><span class="token operator">-</span><span class="token number">1</span><span class="token punctuation">]</span>
        decode<span class="token punctuation">[</span><span class="token operator">-</span><span class="token number">1</span><span class="token punctuation">]</span><span class="token punctuation">[</span><span class="token operator">-</span><span class="token number">2</span><span class="token punctuation">]</span><span class="token punctuation">,</span> decode<span class="token punctuation">[</span><span class="token operator">-</span><span class="token number">1</span><span class="token punctuation">]</span><span class="token punctuation">[</span><span class="token operator">-</span><span class="token number">3</span><span class="token punctuation">]</span> <span class="token operator">=</span> decode<span class="token punctuation">[</span><span class="token operator">-</span><span class="token number">1</span><span class="token punctuation">]</span><span class="token punctuation">[</span><span class="token operator">-</span><span class="token number">3</span><span class="token punctuation">]</span><span class="token punctuation">,</span> decode<span class="token punctuation">[</span><span class="token operator">-</span><span class="token number">1</span><span class="token punctuation">]</span><span class="token punctuation">[</span><span class="token operator">-</span><span class="token number">2</span><span class="token punctuation">]</span>
    decode<span class="token punctuation">[</span><span class="token operator">-</span><span class="token number">1</span><span class="token punctuation">]</span> <span class="token operator">=</span> <span class="token builtin">str</span><span class="token punctuation">(</span>decode<span class="token punctuation">[</span><span class="token operator">-</span><span class="token number">1</span><span class="token punctuation">]</span><span class="token punctuation">)</span>

<span class="token keyword keyword-with">with</span> <span class="token builtin">open</span><span class="token punctuation">(</span><span class="token string">&apos;../data/decode.out&apos;</span><span class="token punctuation">,</span> <span class="token string">&apos;w&apos;</span><span class="token punctuation">)</span> <span class="token keyword keyword-as">as</span> f<span class="token punctuation">:</span>
    f<span class="token punctuation">.</span>write<span class="token punctuation">(</span><span class="token string">&apos;\n&apos;</span><span class="token punctuation">.</span>join<span class="token punctuation">(</span>decode<span class="token punctuation">)</span><span class="token punctuation">)</span>

</pre><h2 class="mume-header" id="%E9%99%84%E5%BD%95">&#x9644;&#x5F55;</h2>

<p><u> &#x4E8C;&#x8FDB;&#x5236;&#x539F;&#x6587; </u></p>
<pre data-role="codeBlock" data-info="in" class="language-in"><code>009637000 0000A206 01000097 00277D98 040A0000  [.........}&apos;.....]
009637010 00002B85 00000001 00011DEC 00274438  [.+..........8D&apos;.]
009637020 00000000 00320002 01000090 001A0003  [......2.........]
009637030 00000643 00C1AEC1 002B0155 00008000  [C.......U.+.....]
009637040 002286DA 00100004 00000563 00C1A8DD  [..&quot;.....c.......]
009637050 002A00F1 00008000 00228967 00000000  [..*.....g.&quot;.....]
009637060 00000000 000E0100 002EFFFF 1CBF160C  [................]
009637070 00001CBF 1852000E 1BD51C08 1B701960  [......R.....`.p.]
009637080 1B0D1B3F 19041ADD 1A4C1A7A 19EF1A1E  [?.......z.L.....]
009637090 0000160C 00000000 00000000 00000000  [................]
0096370A0 00000000 00000000 00000000 00000000  [................]
009638670 0309002C 062350C2 4C4C494D 43055245  [,....P#.MILLER.C]
009638680 4B52454C 534EC203 01B67707 01010117  [LERK..NS.w......]
009638690 FF16C202 080BC102 2057454E 4B524F59  [........NEW YORK]
0096386A0 0309012C 062350C2 4C4C494D 43055245  [,....P#.MILLER.C]
0096386B0 4B52454C 534EC203 01B67707 01010117  [LERK..NS.w......]
0096386C0 331EC203 0BC102FF 57454E08 524F5920  [...3.....NEW YOR]
0096386D0 09012C4B 2350C203 4C494D06 0552454C  [K,....P#.MILLER.]
0096386E0 52454C43 4EC2034B B6770753 01011701  [CLERK..NS.w.....]
0096386F0 16C20201 0BC102FF 57454E08 524F5920  [.........NEW YOR]
009638700 09012C4B 2350C203 4C494D06 0552454C  [K,....P#.MILLER.]
009638710 52454C43 4EC2034B B6770753 01011701  [CLERK..NS.w.....]
009638720 1EC20301 C102FF33 454E080B 4F592057  [....3.....NEW YO]
009638730 012C4B52 50C20309 494D0623 52454C4C  [RK,....P#.MILLER]
009638740 454C4305 C2034B52 7707534E 011701B6  [.CLERK..NS.w....]
009638750 C2020101 C102FF16 454E080B 4F592057  [..........NEW YO]
009638760 012C4B52 50C20309 494D0623 52454C4C  [RK,....P#.MILLER]
009638770 454C4305 C2034B52 7707534E 011701B6  [.CLERK..NS.w....]
009638780 C2030101 02FF0B0E 4E080BC1 59205745  [...........NEW Y]
009638790 2C4B524F C2030901 4D062350 454C4C49  [ORK,....P#.MILLE]
0096387A0 4C430552 034B5245 07534EC2 1701B677  [R.CLERK..NS.w...]
0096387B0 02010101 02FF16C2 4E080BC1 59205745  [...........NEW Y]
0096387C0 2C4B524F C2030901 4D062350 454C4C49  [ORK,....P#.MILLE]
0096387D0 4C430552 034B5245 07534EC2 1701B677  [R.CLERK..NS.w...]
0096387E0 03010101 FF0B0EC2 080BC102 2057454E  [............NEW ]
0096387F0 4B524F59 0309002C 062350C2 4C4C494D  [YORK,....P#.MILL]
009638800 43055245 4B52454C 534EC203 01B67707  [ER.CLERK..NS.w..]
009638810 01010117 FF16C202 080BC102 2057454E  [............NEW ]
009638820 4B524F59 0309012C 062350C2 4C4C494D  [YORK,....P#.MILL]
009638830 43055245 4B52454C 534EC203 01B67707  [ER.CLERK..NS.w..]
009638840 01010117 0B0EC203 0BC102FF 57454E08  [.............NEW]
009638850 524F5920 09002C4B 2350C203 4C494D06  [ YORK,....P#.MIL]
009638860 0552454C 52454C43 4EC2034B B6770753  [LER.CLERK..NS.w.]
009638870 01011701 16C20201 0BC102FF 57454E08  [.............NEW]
009638880 524F5920 09012C4B 2350C203 4C494D06  [ YORK,....P#.MIL]
009638890 0552454C 52454C43 4EC2034B B6770753  [LER.CLERK..NS.w.]
0096388A0 01011701 0EC20301 C102FF0B 454E080B  [..............NE]
0096388B0 4F592057 002C4B52 4AC20309 4D530546  [W YORK,....JF.SM]
0096388C0 05485449 52454C43 50C2034B B4770703  [ITH.CLERK..P..w.]
0096388D0 0101110C 0BC20301 C102FF15 41440615  [..............DA]
0096388E0 53414C4C 0309012C 05464AC2 54494D53  [LLAS,....JF.SMIT]
0096388F0 4C430548 034B5245 070350C2 110CB477  [H.CLERK..P..w...]
009638900 FF010101 15C102FF 4C414406 2C53414C  [.........DALLAS,]
009638910 C2030901 5305464A 4854494D 454C4305  [....JF.SMITH.CLE]
009638920 C2034B52 77070350 01110CB4 C2030101  [RK..P..w........]
009638930 02FF150B 440615C1 414C4C41 09012C53  [.......DALLAS,..]
009638940 464AC203 494D5305 43054854 4B52454C  [..JF.SMITH.CLERK]
009638950 0350C203 0CB47707 01010111 C102FFFF  [..P..w..........]
009638960 41440615 53414C4C 0309002C 04284FC2  [..DALLAS,....O(.]
009638970 474E494B 45525009 45444953 07FF544E  [KING.PRESIDENT..]
009638980 110BB577 02010101 02FF38C2 4E080BC1  [w........8.....N]
009638990 59205745 2C4B524F C2030901 4B04284F  [EW YORK,....O(.K]
0096389A0 09474E49 53455250 4E454449 7707FF54  [ING.PRESIDENT..w]
0096389B0 01110BB5 FFFF0101 080BC102 2057454E  [............NEW ]
0096389C0 4B524F59 0309002C 05434CC2 454E4F4A  [YORK,....LC.JONE]
0096389D0 414D0753 4547414E 4FC20352 B5770728  [S.MANAGER..O(.w.]
0096389E0 01010204 21C20301 C102FF0B 41440615  [.......!......DA]
0096389F0 53414C4C 0309012C 05434CC2 454E4F4A  [LLAS,....LC.JONE]
009638A00 414D0753 4547414E 4FC20352 B5770728  [S.MANAGER..O(.w.]
009638A10 01010204 1AC20201 15C102FF 4C414406  [.............DAL]
009638A20 2C53414C C2030900 4D062350 454C4C49  [LAS,....P#.MILLE]
009638A30 4C430552 034B5245 07534EC2 1701B677  [R.CLERK..NS.w...]
009638A40 02010101 02FF16C2 4E080BC1 59205745  [...........NEW Y]
009638A50 2C4B524F C2030900 46040350 0744524F  [ORK,....P..FORD.]
009638A60 4C414E41 03545359 07434CC2 030CB577  [ANALYST..LC.w...]
009638A70 03010101 FF0B21C2 0615C102 4C4C4144  [.....!......DALL]
009638A80 002C5341 50C20209 4D414A05 43055345  [AS,....P.JAMES.C]
009638A90 4B52454C 634DC203 0CB57707 01010103  [LERK..Mc.w......]
009638AA0 1F11C203 1FC102FF 49484307 4F474143  [.........CHICAGO]
009638AB0 0309002C 054D4FC2 4D414441 4C430553  [,....OM.ADAMS.CL]
009638AC0 034B5245 07594EC2 1705BB77 03010101  [ERK..NY.w.......]
009638AD0 FF0B0EC2 0615C102 4C4C4144 002C5341  [........DALLAS,.]
009638AE0 4FC20309 5554062D 52454E52 4C415308  [...O-.TURNER.SAL]
009638AF0 414D5345 4DC2034E B5770763 01010809  [ESMAN..Mc.w.....]
009638B00 16C20301 02800151 43071FC1 41434948  [....Q......CHICA]
009638B10 012C4F47 4FC20309 494B0428 5009474E  [GO,....O(.KING.P]
009638B20 49534552 544E4544 B57707FF 0101110B  [RESIDENT..w.....]
009638B30 38C20201 0BC102FF 57454E08 524F5920  [...8.....NEW YOR]
009638B40 09002C4B 594EC203 4F435305 41075454  [K,....NY.SCOTT.A]
009638B50 594C414E C2035453 7707434C 011304BB  [NALYST..LC.w....]
009638B60 C2030101 02FF0B21 440615C1 414C4C41  [....!......DALLA]
009638B70 09002C53 534EC203 414C4305 4D074B52  [S,....NS.CLARK.M]
009638B80 47414E41 C2035245 7707284F 010906B5  [ANAGER..O(.w....]
009638B90 C2030101 02FF331E 4E080BC1 59205745  [.....3.....NEW Y]
009638BA0 2C4B524F C2030900 4205634D 454B414C  [ORK,....Mc.BLAKE]
009638BB0 4E414D07 52454741 284FC203 05B57707  [.MANAGER..O(.w..]
009638BC0 01010101 1F21C203 1FC102FF 49484307  [......!......CHI]
009638BD0 4F474143 0309002C 06374DC2 5452414D  [CAGO,....M7.MART]
009638BE0 53084E49 53454C41 034E414D 07634DC2  [IN.SALESMAN..Mc.]
009638BF0 1C09B577 03010101 021F11C2 C1020FC2  [w...............]
009638C00 4843071F 47414349 09002C4F 434CC203  [..CHICAGO,....LC]
009638C10 4E4F4A05 4D075345 47414E41 C2035245  [.JONES.MANAGER..]
009638C20 7707284F 010204B5 C2030101 02FF0B21  [O(.w........!...]
009638C30 440615C1 414C4C41 09002C53 164CC203  [...DALLAS,....L.]
009638C40 52415704 41530844 4D53454C C2034E41  [.WARD.SALESMAN..]
009638C50 7707634D 011602B5 C2030101 C2021F11  [Mc.w............]
009638C60 1FC10206 49484307 4F474143 0309002C  [.....CHICAGO,...]
009638C70 05644BC2 454C4C41 4153084E 4D53454C  [.Kd.ALLEN.SALESM]
009638C80 C2034E41 7707634D 011402B5 C2030101  [AN..Mc.w........]
009638C90 C2025114 1FC10204 49484307 4F474143  [.Q.......CHICAGO]
009638CA0 0309012C 05464AC2 54494D53 4C430548  [,....JF.SMITH.CL]
009638CB0 034B5245 070350C2 110CB477 03010101  [ERK..P..w.......]
009638CC0 FF150BC2 0615C102 4C4C4144 002C5341  [........DALLAS,.]
009638CD0 50C20308 4F460403 41074452 594C414E  [...P..FORD.ANALY]
009638CE0 C2035453 7707434C 01030CB5 C2030101  [ST..LC.w........]
009638CF0 02FF0B21 002C15C1 4FC20308 4441054D  [!.....,....OM.AD]
009638D00 05534D41 52454C43 4EC2034B BB770759  [AMS.CLERK..NY.w.]
009638D10 01011705 0EC20301 C102FF0B 08002C15  [.............,..]
009638D20 2D4FC203 52555406 0852454E 454C4153  [..O-.TURNER.SALE]
009638D30 4E414D53 634DC203 09B57707 01010108  [SMAN..Mc.w......]
009638D40 5113C203 C1028001 08002C1F 594EC203  [...Q.....,....NY]
009638D50 4F435305 41075454 594C414E C2035453  [.SCOTT.ANALYST..]
009638D60 7707434C 011304BB C2030101 02FF0B21  [LC.w........!...]
009638D70 002C15C1 4BC20308 4C410564 084E454C  [..,....Kd.ALLEN.]
009638D80 454C4153 4E414D53 634DC203 02B57707  [SALESMAN..Mc.w..]
009638D90 01010114 5114C203 0204C202 002C1FC1  [.......Q......,.]
009638DA0 4AC20308 4D530546 05485449 52454C43  [...JF.SMITH.CLER]
009638DB0 50C2034B B4770703 0101110C 0BC20301  [K..P..w.........]
009638DC0 C102FF0B 08002C15 2350C203 4C494D06  [.....,....P#.MIL]
009638DD0 0552454C 52454C43 4EC2034B B6770753  [LER.CLERK..NS.w.]
009638DE0 01011701 13C20201 0BC102FF 0308002C  [............,...]
009638DF0 040350C2 44524F46 414E4107 5453594C  [.P..FORD.ANALYST]
009638E00 434CC203 0CB57707 01010103 FF1FC202  [..LC.w..........]
009638E10 2C15C102 C2020800 414A0550 0553454D  [...,....P.JAMES.]
009638E20 52454C43 4DC2034B B5770763 0101030C  [CLERK..Mc.w.....]
009638E30 0EC20301 C102FF1F 08002C1F 4D4FC203  [.........,....OM]
009638E40 41444105 4305534D 4B52454C 594EC203  [.ADAMS.CLERK..NY]
009638E50 05BB7707 01010117 FF0CC202 2C15C102  [.w.............,]
009638E60 C2030800 54062D4F 454E5255 41530852  [....O-.TURNER.SA]
009638E70 4D53454C C2034E41 7707634D 010809B5  [LESMAN..Mc.w....]
009638E80 C2020101 02800110 002C1FC1 4FC20308  [..........,....O]
009638E90 494B0428 5009474E 49534552 544E4544  [(.KING.PRESIDENT]
009638EA0 B57707FF 0101110B 38C20201 0BC102FF  [..w........8....]
009638EB0 0308002C 05594EC2 544F4353 4E410754  [,....NY.SCOTT.AN]
009638EC0 53594C41 4CC20354 BB770743 01011304  [ALYST..LC.w.....]
009638ED0 1FC20201 15C102FF 0308002C 05534EC2  [........,....NS.]
009638EE0 52414C43 414D074B 4547414E 4FC20352  [CLARK.MANAGER..O]
009638EF0 B5770728 01010906 1EC20301 C102FF33  [(.w.........3...]
009638F00 08002C0B 634DC203 414C4205 4D07454B  [.,....Mc.BLAKE.M]
009638F10 47414E41 C2035245 7707284F 010105B5  [ANAGER..O(.w....]
009638F20 C2030101 02FF1F21 002C1FC1 4DC20308  [....!.....,....M]
009638F30 414D0637 4E495452 4C415308 414D5345  [7.MARTIN.SALESMA]
009638F40 4DC2034E B5770763 01011C09 11C20301  [N..Mc.w.........]
009638F50 0FC2021F 2C1FC102 C2030800 4A05434C  [.......,....LC.J]
009638F60 53454E4F 4E414D07 52454741 284FC203  [ONES.MANAGER..O(]
009638F70 04B57707 01010102 5620C203 15C102FF  [.w........ V....]
009638F80 0308002C 04164CC2 44524157 4C415308  [,....L..WARD.SAL]
009638F90 414D5345 4DC2034E B5770763 01011602  [ESMAN..Mc.w.....]
009638FA0 11C20301 06C2021F 2C1FC102 C2030800  [...........,....]
009638FB0 4105644B 4E454C4C 4C415308 414D5345  [Kd.ALLEN.SALESMA]
009638FC0 4DC2034E B5770763 01011402 11C20201  [N..Mc.w.........]
009638FD0 0204C202 002C1FC1 4AC20308 4D530546  [......,....JF.SM]
009638FE0 05485449 52454C43 50C2034B B4770703  [ITH.CLERK..P..w.]
009638FF0 0101110C 09C20201 15C102FF 7D98060A  [...............}]
</code></pre><p><u> &#x5341;&#x8FDB;&#x5236;&#x89E3;&#x7801;&#x539F;&#x6587; </u></p>
<pre data-role="codeBlock" data-info="out" class="language-out"><code>[6, 162, 0, 0, 151, 0, 0, 1, 152, 125, 39, 0, 0, 0, 10, 4]
[133, 43, 0, 0, 1, 0, 0, 0, 236, 29, 1, 0, &apos;56[8]&apos;, &apos;68[D]&apos;, 39, 0]
[0, 0, 0, 0, 2, 0, &apos;50[2]&apos;, 0, 144, 0, 0, 1, 3, 0, 26, 0]
[&apos;67[C]&apos;, 6, 0, 0, 193, 174, 193, 0, &apos;85[U]&apos;, 1, 43, 0, 0, 128, 0, 0]
[218, 134, 34, 0, 4, 0, 16, 0, &apos;99[c]&apos;, 5, 0, 0, 221, 168, 193, 0]
[241, 0, 42, 0, 0, 128, 0, 0, &apos;103[g]&apos;, 137, 34, 0, 0, 0, 0, 0]
[0, 0, 0, 0, 0, 1, 14, 0, 255, 255, 46, 0, 12, 22, 191, 28]
[191, 28, 0, 0, 14, 0, &apos;82[R]&apos;, 24, 8, 28, 213, 27, 96, 25, &apos;112[p]&apos;, 27]
[63, 27, 13, 27, 221, 26, 4, 25, &apos;122[z]&apos;, 26, &apos;76[L]&apos;, 26, 30, 26, 239, 25]
[12, 22, 0, 0, 0, 0, 0, 0, 0, 0, 0, 0, 0, 0, 0, 0]
[0, 0, 0, 0, 0, 0, 0, 0, 0, 0, 0, 0, 0, 0, 0, 0]
[44, 0, 9, 3, 194, &apos;80[P]&apos;, 35, 6, &apos;77[M]&apos;, &apos;73[I]&apos;, &apos;76[L]&apos;, &apos;76[L]&apos;, &apos;69[E]&apos;, &apos;82[R]&apos;, 5, &apos;67[C]&apos;]
[&apos;76[L]&apos;, &apos;69[E]&apos;, &apos;82[R]&apos;, &apos;75[K]&apos;, 3, 194, &apos;78[N]&apos;, &apos;83[S]&apos;, 7, &apos;119[w]&apos;, 182, 1, 23, 1, 1, 1]
[2, 194, 22, 255, 2, 193, 11, 8, &apos;78[N]&apos;, &apos;69[E]&apos;, &apos;87[W]&apos;, 32, &apos;89[Y]&apos;, &apos;79[O]&apos;, &apos;82[R]&apos;, &apos;75[K]&apos;]
[44, 1, 9, 3, 194, &apos;80[P]&apos;, 35, 6, &apos;77[M]&apos;, &apos;73[I]&apos;, &apos;76[L]&apos;, &apos;76[L]&apos;, &apos;69[E]&apos;, &apos;82[R]&apos;, 5, &apos;67[C]&apos;]
[&apos;76[L]&apos;, &apos;69[E]&apos;, &apos;82[R]&apos;, &apos;75[K]&apos;, 3, 194, &apos;78[N]&apos;, &apos;83[S]&apos;, 7, &apos;119[w]&apos;, 182, 1, 23, 1, 1, 1]
[3, 194, 30, &apos;51[3]&apos;, 255, 2, 193, 11, 8, &apos;78[N]&apos;, &apos;69[E]&apos;, &apos;87[W]&apos;, 32, &apos;89[Y]&apos;, &apos;79[O]&apos;, &apos;82[R]&apos;]
[&apos;75[K]&apos;, 44, 1, 9, 3, 194, &apos;80[P]&apos;, 35, 6, &apos;77[M]&apos;, &apos;73[I]&apos;, &apos;76[L]&apos;, &apos;76[L]&apos;, &apos;69[E]&apos;, &apos;82[R]&apos;, 5]
[&apos;67[C]&apos;, &apos;76[L]&apos;, &apos;69[E]&apos;, &apos;82[R]&apos;, &apos;75[K]&apos;, 3, 194, &apos;78[N]&apos;, &apos;83[S]&apos;, 7, &apos;119[w]&apos;, 182, 1, 23, 1, 1]
[1, 2, 194, 22, 255, 2, 193, 11, 8, &apos;78[N]&apos;, &apos;69[E]&apos;, &apos;87[W]&apos;, 32, &apos;89[Y]&apos;, &apos;79[O]&apos;, &apos;82[R]&apos;]
[&apos;75[K]&apos;, 44, 1, 9, 3, 194, &apos;80[P]&apos;, 35, 6, &apos;77[M]&apos;, &apos;73[I]&apos;, &apos;76[L]&apos;, &apos;76[L]&apos;, &apos;69[E]&apos;, &apos;82[R]&apos;, 5]
[&apos;67[C]&apos;, &apos;76[L]&apos;, &apos;69[E]&apos;, &apos;82[R]&apos;, &apos;75[K]&apos;, 3, 194, &apos;78[N]&apos;, &apos;83[S]&apos;, 7, &apos;119[w]&apos;, 182, 1, 23, 1, 1]
[1, 3, 194, 30, &apos;51[3]&apos;, 255, 2, 193, 11, 8, &apos;78[N]&apos;, &apos;69[E]&apos;, &apos;87[W]&apos;, 32, &apos;89[Y]&apos;, &apos;79[O]&apos;]
[&apos;82[R]&apos;, &apos;75[K]&apos;, 44, 1, 9, 3, 194, &apos;80[P]&apos;, 35, 6, &apos;77[M]&apos;, &apos;73[I]&apos;, &apos;76[L]&apos;, &apos;76[L]&apos;, &apos;69[E]&apos;, &apos;82[R]&apos;]
[5, &apos;67[C]&apos;, &apos;76[L]&apos;, &apos;69[E]&apos;, &apos;82[R]&apos;, &apos;75[K]&apos;, 3, 194, &apos;78[N]&apos;, &apos;83[S]&apos;, 7, &apos;119[w]&apos;, 182, 1, 23, 1]
[1, 1, 2, 194, 22, 255, 2, 193, 11, 8, &apos;78[N]&apos;, &apos;69[E]&apos;, &apos;87[W]&apos;, 32, &apos;89[Y]&apos;, &apos;79[O]&apos;]
[&apos;82[R]&apos;, &apos;75[K]&apos;, 44, 1, 9, 3, 194, &apos;80[P]&apos;, 35, 6, &apos;77[M]&apos;, &apos;73[I]&apos;, &apos;76[L]&apos;, &apos;76[L]&apos;, &apos;69[E]&apos;, &apos;82[R]&apos;]
[5, &apos;67[C]&apos;, &apos;76[L]&apos;, &apos;69[E]&apos;, &apos;82[R]&apos;, &apos;75[K]&apos;, 3, 194, &apos;78[N]&apos;, &apos;83[S]&apos;, 7, &apos;119[w]&apos;, 182, 1, 23, 1]
[1, 1, 3, 194, 14, 11, 255, 2, 193, 11, 8, &apos;78[N]&apos;, &apos;69[E]&apos;, &apos;87[W]&apos;, 32, &apos;89[Y]&apos;]
[&apos;79[O]&apos;, &apos;82[R]&apos;, &apos;75[K]&apos;, 44, 1, 9, 3, 194, &apos;80[P]&apos;, 35, 6, &apos;77[M]&apos;, &apos;73[I]&apos;, &apos;76[L]&apos;, &apos;76[L]&apos;, &apos;69[E]&apos;]
[&apos;82[R]&apos;, 5, &apos;67[C]&apos;, &apos;76[L]&apos;, &apos;69[E]&apos;, &apos;82[R]&apos;, &apos;75[K]&apos;, 3, 194, &apos;78[N]&apos;, &apos;83[S]&apos;, 7, &apos;119[w]&apos;, 182, 1, 23]
[1, 1, 1, 2, 194, 22, 255, 2, 193, 11, 8, &apos;78[N]&apos;, &apos;69[E]&apos;, &apos;87[W]&apos;, 32, &apos;89[Y]&apos;]
[&apos;79[O]&apos;, &apos;82[R]&apos;, &apos;75[K]&apos;, 44, 1, 9, 3, 194, &apos;80[P]&apos;, 35, 6, &apos;77[M]&apos;, &apos;73[I]&apos;, &apos;76[L]&apos;, &apos;76[L]&apos;, &apos;69[E]&apos;]
[&apos;82[R]&apos;, 5, &apos;67[C]&apos;, &apos;76[L]&apos;, &apos;69[E]&apos;, &apos;82[R]&apos;, &apos;75[K]&apos;, 3, 194, &apos;78[N]&apos;, &apos;83[S]&apos;, 7, &apos;119[w]&apos;, 182, 1, 23]
[1, 1, 1, 3, 194, 14, 11, 255, 2, 193, 11, 8, &apos;78[N]&apos;, &apos;69[E]&apos;, &apos;87[W]&apos;, 32]
[&apos;89[Y]&apos;, &apos;79[O]&apos;, &apos;82[R]&apos;, &apos;75[K]&apos;, 44, 0, 9, 3, 194, &apos;80[P]&apos;, 35, 6, &apos;77[M]&apos;, &apos;73[I]&apos;, &apos;76[L]&apos;, &apos;76[L]&apos;]
[&apos;69[E]&apos;, &apos;82[R]&apos;, 5, &apos;67[C]&apos;, &apos;76[L]&apos;, &apos;69[E]&apos;, &apos;82[R]&apos;, &apos;75[K]&apos;, 3, 194, &apos;78[N]&apos;, &apos;83[S]&apos;, 7, &apos;119[w]&apos;, 182, 1]
[23, 1, 1, 1, 2, 194, 22, 255, 2, 193, 11, 8, &apos;78[N]&apos;, &apos;69[E]&apos;, &apos;87[W]&apos;, 32]
[&apos;89[Y]&apos;, &apos;79[O]&apos;, &apos;82[R]&apos;, &apos;75[K]&apos;, 44, 1, 9, 3, 194, &apos;80[P]&apos;, 35, 6, &apos;77[M]&apos;, &apos;73[I]&apos;, &apos;76[L]&apos;, &apos;76[L]&apos;]
[&apos;69[E]&apos;, &apos;82[R]&apos;, 5, &apos;67[C]&apos;, &apos;76[L]&apos;, &apos;69[E]&apos;, &apos;82[R]&apos;, &apos;75[K]&apos;, 3, 194, &apos;78[N]&apos;, &apos;83[S]&apos;, 7, &apos;119[w]&apos;, 182, 1]
[23, 1, 1, 1, 3, 194, 14, 11, 255, 2, 193, 11, 8, &apos;78[N]&apos;, &apos;69[E]&apos;, &apos;87[W]&apos;]
[32, &apos;89[Y]&apos;, &apos;79[O]&apos;, &apos;82[R]&apos;, &apos;75[K]&apos;, 44, 0, 9, 3, 194, &apos;80[P]&apos;, 35, 6, &apos;77[M]&apos;, &apos;73[I]&apos;, &apos;76[L]&apos;]
[&apos;76[L]&apos;, &apos;69[E]&apos;, &apos;82[R]&apos;, 5, &apos;67[C]&apos;, &apos;76[L]&apos;, &apos;69[E]&apos;, &apos;82[R]&apos;, &apos;75[K]&apos;, 3, 194, &apos;78[N]&apos;, &apos;83[S]&apos;, 7, &apos;119[w]&apos;, 182]
[1, 23, 1, 1, 1, 2, 194, 22, 255, 2, 193, 11, 8, &apos;78[N]&apos;, &apos;69[E]&apos;, &apos;87[W]&apos;]
[32, &apos;89[Y]&apos;, &apos;79[O]&apos;, &apos;82[R]&apos;, &apos;75[K]&apos;, 44, 1, 9, 3, 194, &apos;80[P]&apos;, 35, 6, &apos;77[M]&apos;, &apos;73[I]&apos;, &apos;76[L]&apos;]
[&apos;76[L]&apos;, &apos;69[E]&apos;, &apos;82[R]&apos;, 5, &apos;67[C]&apos;, &apos;76[L]&apos;, &apos;69[E]&apos;, &apos;82[R]&apos;, &apos;75[K]&apos;, 3, 194, &apos;78[N]&apos;, &apos;83[S]&apos;, 7, &apos;119[w]&apos;, 182]
[1, 23, 1, 1, 1, 3, 194, 14, 11, 255, 2, 193, 11, 8, &apos;78[N]&apos;, &apos;69[E]&apos;]
[&apos;87[W]&apos;, 32, &apos;89[Y]&apos;, &apos;79[O]&apos;, &apos;82[R]&apos;, &apos;75[K]&apos;, 44, 0, 9, 3, 194, &apos;74[J]&apos;, &apos;70[F]&apos;, 5, &apos;83[S]&apos;, &apos;77[M]&apos;]
[&apos;73[I]&apos;, &apos;84[T]&apos;, &apos;72[H]&apos;, 5, &apos;67[C]&apos;, &apos;76[L]&apos;, &apos;69[E]&apos;, &apos;82[R]&apos;, &apos;75[K]&apos;, 3, 194, &apos;80[P]&apos;, 3, 7, &apos;119[w]&apos;, 180]
[12, 17, 1, 1, 1, 3, 194, 11, 21, 255, 2, 193, 21, 6, &apos;68[D]&apos;, &apos;65[A]&apos;]
[&apos;76[L]&apos;, &apos;76[L]&apos;, &apos;65[A]&apos;, &apos;83[S]&apos;, 44, 1, 9, 3, 194, &apos;74[J]&apos;, &apos;70[F]&apos;, 5, &apos;83[S]&apos;, &apos;77[M]&apos;, &apos;73[I]&apos;, &apos;84[T]&apos;]
[&apos;72[H]&apos;, 5, &apos;67[C]&apos;, &apos;76[L]&apos;, &apos;69[E]&apos;, &apos;82[R]&apos;, &apos;75[K]&apos;, 3, 194, &apos;80[P]&apos;, 3, 7, &apos;119[w]&apos;, 180, 12, 17]
[1, 1, 1, 255, 255, 2, 193, 21, 6, &apos;68[D]&apos;, &apos;65[A]&apos;, &apos;76[L]&apos;, &apos;76[L]&apos;, &apos;65[A]&apos;, &apos;83[S]&apos;, 44]
[1, 9, 3, 194, &apos;74[J]&apos;, &apos;70[F]&apos;, 5, &apos;83[S]&apos;, &apos;77[M]&apos;, &apos;73[I]&apos;, &apos;84[T]&apos;, &apos;72[H]&apos;, 5, &apos;67[C]&apos;, &apos;76[L]&apos;, &apos;69[E]&apos;]
[&apos;82[R]&apos;, &apos;75[K]&apos;, 3, 194, &apos;80[P]&apos;, 3, 7, &apos;119[w]&apos;, 180, 12, 17, 1, 1, 1, 3, 194]
[11, 21, 255, 2, 193, 21, 6, &apos;68[D]&apos;, &apos;65[A]&apos;, &apos;76[L]&apos;, &apos;76[L]&apos;, &apos;65[A]&apos;, &apos;83[S]&apos;, 44, 1, 9]
[3, 194, &apos;74[J]&apos;, &apos;70[F]&apos;, 5, &apos;83[S]&apos;, &apos;77[M]&apos;, &apos;73[I]&apos;, &apos;84[T]&apos;, &apos;72[H]&apos;, 5, &apos;67[C]&apos;, &apos;76[L]&apos;, &apos;69[E]&apos;, &apos;82[R]&apos;, &apos;75[K]&apos;]
[3, 194, &apos;80[P]&apos;, 3, 7, &apos;119[w]&apos;, 180, 12, 17, 1, 1, 1, 255, 255, 2, 193]
[21, 6, &apos;68[D]&apos;, &apos;65[A]&apos;, &apos;76[L]&apos;, &apos;76[L]&apos;, &apos;65[A]&apos;, &apos;83[S]&apos;, 44, 0, 9, 3, 194, &apos;79[O]&apos;, 40, 4]
[&apos;75[K]&apos;, &apos;73[I]&apos;, &apos;78[N]&apos;, &apos;71[G]&apos;, 9, &apos;80[P]&apos;, &apos;82[R]&apos;, &apos;69[E]&apos;, &apos;83[S]&apos;, &apos;73[I]&apos;, &apos;68[D]&apos;, &apos;69[E]&apos;, &apos;78[N]&apos;, &apos;84[T]&apos;, 255, 7]
[&apos;119[w]&apos;, 181, 11, 17, 1, 1, 1, 2, 194, &apos;56[8]&apos;, 255, 2, 193, 11, 8, &apos;78[N]&apos;]
[&apos;69[E]&apos;, &apos;87[W]&apos;, 32, &apos;89[Y]&apos;, &apos;79[O]&apos;, &apos;82[R]&apos;, &apos;75[K]&apos;, 44, 1, 9, 3, 194, &apos;79[O]&apos;, 40, 4, &apos;75[K]&apos;]
[&apos;73[I]&apos;, &apos;78[N]&apos;, &apos;71[G]&apos;, 9, &apos;80[P]&apos;, &apos;82[R]&apos;, &apos;69[E]&apos;, &apos;83[S]&apos;, &apos;73[I]&apos;, &apos;68[D]&apos;, &apos;69[E]&apos;, &apos;78[N]&apos;, &apos;84[T]&apos;, 255, 7, &apos;119[w]&apos;]
[181, 11, 17, 1, 1, 1, 255, 255, 2, 193, 11, 8, &apos;78[N]&apos;, &apos;69[E]&apos;, &apos;87[W]&apos;, 32]
[&apos;89[Y]&apos;, &apos;79[O]&apos;, &apos;82[R]&apos;, &apos;75[K]&apos;, 44, 0, 9, 3, 194, &apos;76[L]&apos;, &apos;67[C]&apos;, 5, &apos;74[J]&apos;, &apos;79[O]&apos;, &apos;78[N]&apos;, &apos;69[E]&apos;]
[&apos;83[S]&apos;, 7, &apos;77[M]&apos;, &apos;65[A]&apos;, &apos;78[N]&apos;, &apos;65[A]&apos;, &apos;71[G]&apos;, &apos;69[E]&apos;, &apos;82[R]&apos;, 3, 194, &apos;79[O]&apos;, 40, 7, &apos;119[w]&apos;, 181]
[4, 2, 1, 1, 1, 3, 194, 33, 11, 255, 2, 193, 21, 6, &apos;68[D]&apos;, &apos;65[A]&apos;]
[&apos;76[L]&apos;, &apos;76[L]&apos;, &apos;65[A]&apos;, &apos;83[S]&apos;, 44, 1, 9, 3, 194, &apos;76[L]&apos;, &apos;67[C]&apos;, 5, &apos;74[J]&apos;, &apos;79[O]&apos;, &apos;78[N]&apos;, &apos;69[E]&apos;]
[&apos;83[S]&apos;, 7, &apos;77[M]&apos;, &apos;65[A]&apos;, &apos;78[N]&apos;, &apos;65[A]&apos;, &apos;71[G]&apos;, &apos;69[E]&apos;, &apos;82[R]&apos;, 3, 194, &apos;79[O]&apos;, 40, 7, &apos;119[w]&apos;, 181]
[4, 2, 1, 1, 1, 2, 194, 26, 255, 2, 193, 21, 6, &apos;68[D]&apos;, &apos;65[A]&apos;, &apos;76[L]&apos;]
[&apos;76[L]&apos;, &apos;65[A]&apos;, &apos;83[S]&apos;, 44, 0, 9, 3, 194, &apos;80[P]&apos;, 35, 6, &apos;77[M]&apos;, &apos;73[I]&apos;, &apos;76[L]&apos;, &apos;76[L]&apos;, &apos;69[E]&apos;]
[&apos;82[R]&apos;, 5, &apos;67[C]&apos;, &apos;76[L]&apos;, &apos;69[E]&apos;, &apos;82[R]&apos;, &apos;75[K]&apos;, 3, 194, &apos;78[N]&apos;, &apos;83[S]&apos;, 7, &apos;119[w]&apos;, 182, 1, 23]
[1, 1, 1, 2, 194, 22, 255, 2, 193, 11, 8, &apos;78[N]&apos;, &apos;69[E]&apos;, &apos;87[W]&apos;, 32, &apos;89[Y]&apos;]
[&apos;79[O]&apos;, &apos;82[R]&apos;, &apos;75[K]&apos;, 44, 0, 9, 3, 194, &apos;80[P]&apos;, 3, 4, &apos;70[F]&apos;, &apos;79[O]&apos;, &apos;82[R]&apos;, &apos;68[D]&apos;, 7]
[&apos;65[A]&apos;, &apos;78[N]&apos;, &apos;65[A]&apos;, &apos;76[L]&apos;, &apos;89[Y]&apos;, &apos;83[S]&apos;, &apos;84[T]&apos;, 3, 194, &apos;76[L]&apos;, &apos;67[C]&apos;, 7, &apos;119[w]&apos;, 181, 12, 3]
[1, 1, 1, 3, 194, 33, 11, 255, 2, 193, 21, 6, &apos;68[D]&apos;, &apos;65[A]&apos;, &apos;76[L]&apos;, &apos;76[L]&apos;]
[&apos;65[A]&apos;, &apos;83[S]&apos;, 44, 0, 9, 2, 194, &apos;80[P]&apos;, 5, &apos;74[J]&apos;, &apos;65[A]&apos;, &apos;77[M]&apos;, &apos;69[E]&apos;, &apos;83[S]&apos;, 5, &apos;67[C]&apos;]
[&apos;76[L]&apos;, &apos;69[E]&apos;, &apos;82[R]&apos;, &apos;75[K]&apos;, 3, 194, &apos;77[M]&apos;, &apos;99[c]&apos;, 7, &apos;119[w]&apos;, 181, 12, 3, 1, 1, 1]
[3, 194, 17, 31, 255, 2, 193, 31, 7, &apos;67[C]&apos;, &apos;72[H]&apos;, &apos;73[I]&apos;, &apos;67[C]&apos;, &apos;65[A]&apos;, &apos;71[G]&apos;, &apos;79[O]&apos;]
[44, 0, 9, 3, 194, &apos;79[O]&apos;, &apos;77[M]&apos;, 5, &apos;65[A]&apos;, &apos;68[D]&apos;, &apos;65[A]&apos;, &apos;77[M]&apos;, &apos;83[S]&apos;, 5, &apos;67[C]&apos;, &apos;76[L]&apos;]
[&apos;69[E]&apos;, &apos;82[R]&apos;, &apos;75[K]&apos;, 3, 194, &apos;78[N]&apos;, &apos;89[Y]&apos;, 7, &apos;119[w]&apos;, 187, 5, 23, 1, 1, 1, 3]
[194, 14, 11, 255, 2, 193, 21, 6, &apos;68[D]&apos;, &apos;65[A]&apos;, &apos;76[L]&apos;, &apos;76[L]&apos;, &apos;65[A]&apos;, &apos;83[S]&apos;, 44, 0]
[9, 3, 194, &apos;79[O]&apos;, 45, 6, &apos;84[T]&apos;, &apos;85[U]&apos;, &apos;82[R]&apos;, &apos;78[N]&apos;, &apos;69[E]&apos;, &apos;82[R]&apos;, 8, &apos;83[S]&apos;, &apos;65[A]&apos;, &apos;76[L]&apos;]
[&apos;69[E]&apos;, &apos;83[S]&apos;, &apos;77[M]&apos;, &apos;65[A]&apos;, &apos;78[N]&apos;, 3, 194, &apos;77[M]&apos;, &apos;99[c]&apos;, 7, &apos;119[w]&apos;, 181, 9, 8, 1, 1]
[1, 3, 194, 22, &apos;81[Q]&apos;, 1, 128, 2, 193, 31, 7, &apos;67[C]&apos;, &apos;72[H]&apos;, &apos;73[I]&apos;, &apos;67[C]&apos;, &apos;65[A]&apos;]
[&apos;71[G]&apos;, &apos;79[O]&apos;, 44, 1, 9, 3, 194, &apos;79[O]&apos;, 40, 4, &apos;75[K]&apos;, &apos;73[I]&apos;, &apos;78[N]&apos;, &apos;71[G]&apos;, 9, &apos;80[P]&apos;]
[&apos;82[R]&apos;, &apos;69[E]&apos;, &apos;83[S]&apos;, &apos;73[I]&apos;, &apos;68[D]&apos;, &apos;69[E]&apos;, &apos;78[N]&apos;, &apos;84[T]&apos;, 255, 7, &apos;119[w]&apos;, 181, 11, 17, 1, 1]
[1, 2, 194, &apos;56[8]&apos;, 255, 2, 193, 11, 8, &apos;78[N]&apos;, &apos;69[E]&apos;, &apos;87[W]&apos;, 32, &apos;89[Y]&apos;, &apos;79[O]&apos;, &apos;82[R]&apos;]
[&apos;75[K]&apos;, 44, 0, 9, 3, 194, &apos;78[N]&apos;, &apos;89[Y]&apos;, 5, &apos;83[S]&apos;, &apos;67[C]&apos;, &apos;79[O]&apos;, &apos;84[T]&apos;, &apos;84[T]&apos;, 7, &apos;65[A]&apos;]
[&apos;78[N]&apos;, &apos;65[A]&apos;, &apos;76[L]&apos;, &apos;89[Y]&apos;, &apos;83[S]&apos;, &apos;84[T]&apos;, 3, 194, &apos;76[L]&apos;, &apos;67[C]&apos;, 7, &apos;119[w]&apos;, 187, 4, 19, 1]
[1, 1, 3, 194, 33, 11, 255, 2, 193, 21, 6, &apos;68[D]&apos;, &apos;65[A]&apos;, &apos;76[L]&apos;, &apos;76[L]&apos;, &apos;65[A]&apos;]
[&apos;83[S]&apos;, 44, 0, 9, 3, 194, &apos;78[N]&apos;, &apos;83[S]&apos;, 5, &apos;67[C]&apos;, &apos;76[L]&apos;, &apos;65[A]&apos;, &apos;82[R]&apos;, &apos;75[K]&apos;, 7, &apos;77[M]&apos;]
[&apos;65[A]&apos;, &apos;78[N]&apos;, &apos;65[A]&apos;, &apos;71[G]&apos;, &apos;69[E]&apos;, &apos;82[R]&apos;, 3, 194, &apos;79[O]&apos;, 40, 7, &apos;119[w]&apos;, 181, 6, 9, 1]
[1, 1, 3, 194, 30, &apos;51[3]&apos;, 255, 2, 193, 11, 8, &apos;78[N]&apos;, &apos;69[E]&apos;, &apos;87[W]&apos;, 32, &apos;89[Y]&apos;]
[&apos;79[O]&apos;, &apos;82[R]&apos;, &apos;75[K]&apos;, 44, 0, 9, 3, 194, &apos;77[M]&apos;, &apos;99[c]&apos;, 5, &apos;66[B]&apos;, &apos;76[L]&apos;, &apos;65[A]&apos;, &apos;75[K]&apos;, &apos;69[E]&apos;]
[7, &apos;77[M]&apos;, &apos;65[A]&apos;, &apos;78[N]&apos;, &apos;65[A]&apos;, &apos;71[G]&apos;, &apos;69[E]&apos;, &apos;82[R]&apos;, 3, 194, &apos;79[O]&apos;, 40, 7, &apos;119[w]&apos;, 181, 5]
[1, 1, 1, 1, 3, 194, 33, 31, 255, 2, 193, 31, 7, &apos;67[C]&apos;, &apos;72[H]&apos;, &apos;73[I]&apos;]
[&apos;67[C]&apos;, &apos;65[A]&apos;, &apos;71[G]&apos;, &apos;79[O]&apos;, 44, 0, 9, 3, 194, &apos;77[M]&apos;, &apos;55[7]&apos;, 6, &apos;77[M]&apos;, &apos;65[A]&apos;, &apos;82[R]&apos;, &apos;84[T]&apos;]
[&apos;73[I]&apos;, &apos;78[N]&apos;, 8, &apos;83[S]&apos;, &apos;65[A]&apos;, &apos;76[L]&apos;, &apos;69[E]&apos;, &apos;83[S]&apos;, &apos;77[M]&apos;, &apos;65[A]&apos;, &apos;78[N]&apos;, 3, 194, &apos;77[M]&apos;, &apos;99[c]&apos;, 7]
[&apos;119[w]&apos;, 181, 9, 28, 1, 1, 1, 3, 194, 17, 31, 2, 194, 15, 2, 193]
[31, 7, &apos;67[C]&apos;, &apos;72[H]&apos;, &apos;73[I]&apos;, &apos;67[C]&apos;, &apos;65[A]&apos;, &apos;71[G]&apos;, &apos;79[O]&apos;, 44, 0, 9, 3, 194, &apos;76[L]&apos;, &apos;67[C]&apos;]
[5, &apos;74[J]&apos;, &apos;79[O]&apos;, &apos;78[N]&apos;, &apos;69[E]&apos;, &apos;83[S]&apos;, 7, &apos;77[M]&apos;, &apos;65[A]&apos;, &apos;78[N]&apos;, &apos;65[A]&apos;, &apos;71[G]&apos;, &apos;69[E]&apos;, &apos;82[R]&apos;, 3, 194]
[&apos;79[O]&apos;, 40, 7, &apos;119[w]&apos;, 181, 4, 2, 1, 1, 1, 3, 194, 33, 11, 255, 2]
[193, 21, 6, &apos;68[D]&apos;, &apos;65[A]&apos;, &apos;76[L]&apos;, &apos;76[L]&apos;, &apos;65[A]&apos;, &apos;83[S]&apos;, 44, 0, 9, 3, 194, &apos;76[L]&apos;, 22]
[4, &apos;87[W]&apos;, &apos;65[A]&apos;, &apos;82[R]&apos;, &apos;68[D]&apos;, 8, &apos;83[S]&apos;, &apos;65[A]&apos;, &apos;76[L]&apos;, &apos;69[E]&apos;, &apos;83[S]&apos;, &apos;77[M]&apos;, &apos;65[A]&apos;, &apos;78[N]&apos;, 3, 194]
[&apos;77[M]&apos;, &apos;99[c]&apos;, 7, &apos;119[w]&apos;, 181, 2, 22, 1, 1, 1, 3, 194, 17, 31, 2, 194]
[6, 2, 193, 31, 7, &apos;67[C]&apos;, &apos;72[H]&apos;, &apos;73[I]&apos;, &apos;67[C]&apos;, &apos;65[A]&apos;, &apos;71[G]&apos;, &apos;79[O]&apos;, 44, 0, 9, 3]
[194, &apos;75[K]&apos;, &apos;100[d]&apos;, 5, &apos;65[A]&apos;, &apos;76[L]&apos;, &apos;76[L]&apos;, &apos;69[E]&apos;, &apos;78[N]&apos;, 8, &apos;83[S]&apos;, &apos;65[A]&apos;, &apos;76[L]&apos;, &apos;69[E]&apos;, &apos;83[S]&apos;, &apos;77[M]&apos;]
[&apos;65[A]&apos;, &apos;78[N]&apos;, 3, 194, &apos;77[M]&apos;, &apos;99[c]&apos;, 7, &apos;119[w]&apos;, 181, 2, 20, 1, 1, 1, 3, 194]
[20, &apos;81[Q]&apos;, 2, 194, 4, 2, 193, 31, 7, &apos;67[C]&apos;, &apos;72[H]&apos;, &apos;73[I]&apos;, &apos;67[C]&apos;, &apos;65[A]&apos;, &apos;71[G]&apos;, &apos;79[O]&apos;]
[44, 1, 9, 3, 194, &apos;74[J]&apos;, &apos;70[F]&apos;, 5, &apos;83[S]&apos;, &apos;77[M]&apos;, &apos;73[I]&apos;, &apos;84[T]&apos;, &apos;72[H]&apos;, 5, &apos;67[C]&apos;, &apos;76[L]&apos;]
[&apos;69[E]&apos;, &apos;82[R]&apos;, &apos;75[K]&apos;, 3, 194, &apos;80[P]&apos;, 3, 7, &apos;119[w]&apos;, 180, 12, 17, 1, 1, 1, 3]
[194, 11, 21, 255, 2, 193, 21, 6, &apos;68[D]&apos;, &apos;65[A]&apos;, &apos;76[L]&apos;, &apos;76[L]&apos;, &apos;65[A]&apos;, &apos;83[S]&apos;, 44, 0]
[8, 3, 194, &apos;80[P]&apos;, 3, 4, &apos;70[F]&apos;, &apos;79[O]&apos;, &apos;82[R]&apos;, &apos;68[D]&apos;, 7, &apos;65[A]&apos;, &apos;78[N]&apos;, &apos;65[A]&apos;, &apos;76[L]&apos;, &apos;89[Y]&apos;]
[&apos;83[S]&apos;, &apos;84[T]&apos;, 3, 194, &apos;76[L]&apos;, &apos;67[C]&apos;, 7, &apos;119[w]&apos;, 181, 12, 3, 1, 1, 1, 3, 194]
[33, 11, 255, 2, 193, 21, 44, 0, 8, 3, 194, &apos;79[O]&apos;, &apos;77[M]&apos;, 5, &apos;65[A]&apos;, &apos;68[D]&apos;]
[&apos;65[A]&apos;, &apos;77[M]&apos;, &apos;83[S]&apos;, 5, &apos;67[C]&apos;, &apos;76[L]&apos;, &apos;69[E]&apos;, &apos;82[R]&apos;, &apos;75[K]&apos;, 3, 194, &apos;78[N]&apos;, &apos;89[Y]&apos;, 7, &apos;119[w]&apos;, 187]
[5, 23, 1, 1, 1, 3, 194, 14, 11, 255, 2, 193, 21, 44, 0, 8]
[3, 194, &apos;79[O]&apos;, 45, 6, &apos;84[T]&apos;, &apos;85[U]&apos;, &apos;82[R]&apos;, &apos;78[N]&apos;, &apos;69[E]&apos;, &apos;82[R]&apos;, 8, &apos;83[S]&apos;, &apos;65[A]&apos;, &apos;76[L]&apos;, &apos;69[E]&apos;]
[&apos;83[S]&apos;, &apos;77[M]&apos;, &apos;65[A]&apos;, &apos;78[N]&apos;, 3, 194, &apos;77[M]&apos;, &apos;99[c]&apos;, 7, &apos;119[w]&apos;, 181, 9, 8, 1, 1, 1]
[3, 194, 19, &apos;81[Q]&apos;, 1, 128, 2, 193, 31, 44, 0, 8, 3, 194, &apos;78[N]&apos;, &apos;89[Y]&apos;]
[5, &apos;83[S]&apos;, &apos;67[C]&apos;, &apos;79[O]&apos;, &apos;84[T]&apos;, &apos;84[T]&apos;, 7, &apos;65[A]&apos;, &apos;78[N]&apos;, &apos;65[A]&apos;, &apos;76[L]&apos;, &apos;89[Y]&apos;, &apos;83[S]&apos;, &apos;84[T]&apos;, 3, 194]
[&apos;76[L]&apos;, &apos;67[C]&apos;, 7, &apos;119[w]&apos;, 187, 4, 19, 1, 1, 1, 3, 194, 33, 11, 255, 2]
[193, 21, 44, 0, 8, 3, 194, &apos;75[K]&apos;, &apos;100[d]&apos;, 5, &apos;65[A]&apos;, &apos;76[L]&apos;, &apos;76[L]&apos;, &apos;69[E]&apos;, &apos;78[N]&apos;, 8]
[&apos;83[S]&apos;, &apos;65[A]&apos;, &apos;76[L]&apos;, &apos;69[E]&apos;, &apos;83[S]&apos;, &apos;77[M]&apos;, &apos;65[A]&apos;, &apos;78[N]&apos;, 3, 194, &apos;77[M]&apos;, &apos;99[c]&apos;, 7, &apos;119[w]&apos;, 181, 2]
[20, 1, 1, 1, 3, 194, 20, &apos;81[Q]&apos;, 2, 194, 4, 2, 193, 31, 44, 0]
[8, 3, 194, &apos;74[J]&apos;, &apos;70[F]&apos;, 5, &apos;83[S]&apos;, &apos;77[M]&apos;, &apos;73[I]&apos;, &apos;84[T]&apos;, &apos;72[H]&apos;, 5, &apos;67[C]&apos;, &apos;76[L]&apos;, &apos;69[E]&apos;, &apos;82[R]&apos;]
[&apos;75[K]&apos;, 3, 194, &apos;80[P]&apos;, 3, 7, &apos;119[w]&apos;, 180, 12, 17, 1, 1, 1, 3, 194, 11]
[11, 255, 2, 193, 21, 44, 0, 8, 3, 194, &apos;80[P]&apos;, 35, 6, &apos;77[M]&apos;, &apos;73[I]&apos;, &apos;76[L]&apos;]
[&apos;76[L]&apos;, &apos;69[E]&apos;, &apos;82[R]&apos;, 5, &apos;67[C]&apos;, &apos;76[L]&apos;, &apos;69[E]&apos;, &apos;82[R]&apos;, &apos;75[K]&apos;, 3, 194, &apos;78[N]&apos;, &apos;83[S]&apos;, 7, &apos;119[w]&apos;, 182]
[1, 23, 1, 1, 1, 2, 194, 19, 255, 2, 193, 11, 44, 0, 8, 3]
[194, &apos;80[P]&apos;, 3, 4, &apos;70[F]&apos;, &apos;79[O]&apos;, &apos;82[R]&apos;, &apos;68[D]&apos;, 7, &apos;65[A]&apos;, &apos;78[N]&apos;, &apos;65[A]&apos;, &apos;76[L]&apos;, &apos;89[Y]&apos;, &apos;83[S]&apos;, &apos;84[T]&apos;]
[3, 194, &apos;76[L]&apos;, &apos;67[C]&apos;, 7, &apos;119[w]&apos;, 181, 12, 3, 1, 1, 1, 2, 194, 31, 255]
[2, 193, 21, 44, 0, 8, 2, 194, &apos;80[P]&apos;, 5, &apos;74[J]&apos;, &apos;65[A]&apos;, &apos;77[M]&apos;, &apos;69[E]&apos;, &apos;83[S]&apos;, 5]
[&apos;67[C]&apos;, &apos;76[L]&apos;, &apos;69[E]&apos;, &apos;82[R]&apos;, &apos;75[K]&apos;, 3, 194, &apos;77[M]&apos;, &apos;99[c]&apos;, 7, &apos;119[w]&apos;, 181, 12, 3, 1, 1]
[1, 3, 194, 14, 31, 255, 2, 193, 31, 44, 0, 8, 3, 194, &apos;79[O]&apos;, &apos;77[M]&apos;]
[5, &apos;65[A]&apos;, &apos;68[D]&apos;, &apos;65[A]&apos;, &apos;77[M]&apos;, &apos;83[S]&apos;, 5, &apos;67[C]&apos;, &apos;76[L]&apos;, &apos;69[E]&apos;, &apos;82[R]&apos;, &apos;75[K]&apos;, 3, 194, &apos;78[N]&apos;, &apos;89[Y]&apos;]
[7, &apos;119[w]&apos;, 187, 5, 23, 1, 1, 1, 2, 194, 12, 255, 2, 193, 21, 44]
[0, 8, 3, 194, &apos;79[O]&apos;, 45, 6, &apos;84[T]&apos;, &apos;85[U]&apos;, &apos;82[R]&apos;, &apos;78[N]&apos;, &apos;69[E]&apos;, &apos;82[R]&apos;, 8, &apos;83[S]&apos;, &apos;65[A]&apos;]
[&apos;76[L]&apos;, &apos;69[E]&apos;, &apos;83[S]&apos;, &apos;77[M]&apos;, &apos;65[A]&apos;, &apos;78[N]&apos;, 3, 194, &apos;77[M]&apos;, &apos;99[c]&apos;, 7, &apos;119[w]&apos;, 181, 9, 8, 1]
[1, 1, 2, 194, 16, 1, 128, 2, 193, 31, 44, 0, 8, 3, 194, &apos;79[O]&apos;]
[40, 4, &apos;75[K]&apos;, &apos;73[I]&apos;, &apos;78[N]&apos;, &apos;71[G]&apos;, 9, &apos;80[P]&apos;, &apos;82[R]&apos;, &apos;69[E]&apos;, &apos;83[S]&apos;, &apos;73[I]&apos;, &apos;68[D]&apos;, &apos;69[E]&apos;, &apos;78[N]&apos;, &apos;84[T]&apos;]
[255, 7, &apos;119[w]&apos;, 181, 11, 17, 1, 1, 1, 2, 194, &apos;56[8]&apos;, 255, 2, 193, 11]
[44, 0, 8, 3, 194, &apos;78[N]&apos;, &apos;89[Y]&apos;, 5, &apos;83[S]&apos;, &apos;67[C]&apos;, &apos;79[O]&apos;, &apos;84[T]&apos;, &apos;84[T]&apos;, 7, &apos;65[A]&apos;, &apos;78[N]&apos;]
[&apos;65[A]&apos;, &apos;76[L]&apos;, &apos;89[Y]&apos;, &apos;83[S]&apos;, &apos;84[T]&apos;, 3, 194, &apos;76[L]&apos;, &apos;67[C]&apos;, 7, &apos;119[w]&apos;, 187, 4, 19, 1, 1]
[1, 2, 194, 31, 255, 2, 193, 21, 44, 0, 8, 3, 194, &apos;78[N]&apos;, &apos;83[S]&apos;, 5]
[&apos;67[C]&apos;, &apos;76[L]&apos;, &apos;65[A]&apos;, &apos;82[R]&apos;, &apos;75[K]&apos;, 7, &apos;77[M]&apos;, &apos;65[A]&apos;, &apos;78[N]&apos;, &apos;65[A]&apos;, &apos;71[G]&apos;, &apos;69[E]&apos;, &apos;82[R]&apos;, 3, 194, &apos;79[O]&apos;]
[40, 7, &apos;119[w]&apos;, 181, 6, 9, 1, 1, 1, 3, 194, 30, &apos;51[3]&apos;, 255, 2, 193]
[11, 44, 0, 8, 3, 194, &apos;77[M]&apos;, &apos;99[c]&apos;, 5, &apos;66[B]&apos;, &apos;76[L]&apos;, &apos;65[A]&apos;, &apos;75[K]&apos;, &apos;69[E]&apos;, 7, &apos;77[M]&apos;]
[&apos;65[A]&apos;, &apos;78[N]&apos;, &apos;65[A]&apos;, &apos;71[G]&apos;, &apos;69[E]&apos;, &apos;82[R]&apos;, 3, 194, &apos;79[O]&apos;, 40, 7, &apos;119[w]&apos;, 181, 5, 1, 1]
[1, 1, 3, 194, 33, 31, 255, 2, 193, 31, 44, 0, 8, 3, 194, &apos;77[M]&apos;]
[&apos;55[7]&apos;, 6, &apos;77[M]&apos;, &apos;65[A]&apos;, &apos;82[R]&apos;, &apos;84[T]&apos;, &apos;73[I]&apos;, &apos;78[N]&apos;, 8, &apos;83[S]&apos;, &apos;65[A]&apos;, &apos;76[L]&apos;, &apos;69[E]&apos;, &apos;83[S]&apos;, &apos;77[M]&apos;, &apos;65[A]&apos;]
[&apos;78[N]&apos;, 3, 194, &apos;77[M]&apos;, &apos;99[c]&apos;, 7, &apos;119[w]&apos;, 181, 9, 28, 1, 1, 1, 3, 194, 17]
[31, 2, 194, 15, 2, 193, 31, 44, 0, 8, 3, 194, &apos;76[L]&apos;, &apos;67[C]&apos;, 5, &apos;74[J]&apos;]
[&apos;79[O]&apos;, &apos;78[N]&apos;, &apos;69[E]&apos;, &apos;83[S]&apos;, 7, &apos;77[M]&apos;, &apos;65[A]&apos;, &apos;78[N]&apos;, &apos;65[A]&apos;, &apos;71[G]&apos;, &apos;69[E]&apos;, &apos;82[R]&apos;, 3, 194, &apos;79[O]&apos;, 40]
[7, &apos;119[w]&apos;, 181, 4, 2, 1, 1, 1, 3, 194, 32, &apos;86[V]&apos;, 255, 2, 193, 21]
[44, 0, 8, 3, 194, &apos;76[L]&apos;, 22, 4, &apos;87[W]&apos;, &apos;65[A]&apos;, &apos;82[R]&apos;, &apos;68[D]&apos;, 8, &apos;83[S]&apos;, &apos;65[A]&apos;, &apos;76[L]&apos;]
[&apos;69[E]&apos;, &apos;83[S]&apos;, &apos;77[M]&apos;, &apos;65[A]&apos;, &apos;78[N]&apos;, 3, 194, &apos;77[M]&apos;, &apos;99[c]&apos;, 7, &apos;119[w]&apos;, 181, 2, 22, 1, 1]
[1, 3, 194, 17, 31, 2, 194, 6, 2, 193, 31, 44, 0, 8, 3, 194]
[&apos;75[K]&apos;, &apos;100[d]&apos;, 5, &apos;65[A]&apos;, &apos;76[L]&apos;, &apos;76[L]&apos;, &apos;69[E]&apos;, &apos;78[N]&apos;, 8, &apos;83[S]&apos;, &apos;65[A]&apos;, &apos;76[L]&apos;, &apos;69[E]&apos;, &apos;83[S]&apos;, &apos;77[M]&apos;, &apos;65[A]&apos;]
[&apos;78[N]&apos;, 3, 194, &apos;77[M]&apos;, &apos;99[c]&apos;, 7, &apos;119[w]&apos;, 181, 2, 20, 1, 1, 1, 2, 194, 17]
[2, 194, 4, 2, 193, 31, 44, 0, 8, 3, 194, &apos;74[J]&apos;, &apos;70[F]&apos;, 5, &apos;83[S]&apos;, &apos;77[M]&apos;]
[&apos;73[I]&apos;, &apos;84[T]&apos;, &apos;72[H]&apos;, 5, &apos;67[C]&apos;, &apos;76[L]&apos;, &apos;69[E]&apos;, &apos;82[R]&apos;, &apos;75[K]&apos;, 3, 194, &apos;80[P]&apos;, 3, 7, &apos;119[w]&apos;, 180]
[12, 17, 1, 1, 1, 2, 194, 9, 255, 2, 193, 21, 10, 6, 152, 125]
</code></pre>
      </div>
      
      
    
    
    
    
    
    
    
    
  
    </body></html>