Trace file d:\app\czile\diag\rdbms\orcl\orcl\trace\orcl_ora_21116.trc
Oracle Database 11g Enterprise Edition Release 11.2.0.1.0 - 64bit Production
With the Partitioning, OLAP, Data Mining and Real Application Testing options
Windows NT Version V6.2  
CPU                 : 8 - type 8664, 4 Physical Cores
Process Affinity    : 0x0x0000000000000000
Memory (Avail/Total): Ph:1418M/8037M, Ph+PgF:4641M/25214M 
Instance name: orcl
Redo thread mounted by this instance: 1
Oracle process number: 20
Windows thread id: 21116, image: ORACLE.EXE (SHAD)


*** 2022-06-04 15:01:53.224
*** SESSION ID:(129.6391) 2022-06-04 15:01:53.224
*** CLIENT ID:() 2022-06-04 15:01:53.224
*** SERVICE NAME:(SYS$USERS) 2022-06-04 15:01:53.224
*** MODULE NAME:(SQL*Plus) 2022-06-04 15:01:53.224
*** ACTION NAME:() 2022-06-04 15:01:53.224
 
Start dump data block from file D:\APP\CZILE\ORADATA\ORCL\USERS01.DBF minblk 151 maxblk 151
 V10 STYLE FILE HEADER:
	Compatibility Vsn = 186646528=0xb200000
	Db ID=1625081372=0x60dcc61c, Db Name='ORCL'
	Activation ID=0=0x0
	Control Seq=18413=0x47ed, File size=25760=0x64a0
	File Number=4, Blksiz=8192, File Type=3 DATA
Dump all the blocks in range:
buffer tsn: 4 rdba: 0x01000097 (4/151)
scn: 0x0000.00277d98 seq: 0x0a flg: 0x04 tail: 0x7d98060a
frmt: 0x02 chkval: 0x2b85 type: 0x06=trans data
Hex dump of block: st=0, typ_found=1
Dump of memory from 0x0000000009637000 to 0x0000000009639000
009637000 0000A206 01000097 00277D98 040A0000  [.........}'.....]
009637010 00002B85 00000001 00011DEC 00274438  [.+..........8D'.]
009637020 00000000 00320002 01000090 001A0003  [......2.........]
009637030 00000643 00C1AEC1 002B0155 00008000  [C.......U.+.....]
009637040 002286DA 00100004 00000563 00C1A8DD  [..".....c.......]
009637050 002A00F1 00008000 00228967 00000000  [..*.....g.".....]
009637060 00000000 000E0100 002EFFFF 1CBF160C  [................]
009637070 00001CBF 1852000E 1BD51C08 1B701960  [......R.....`.p.]
009637080 1B0D1B3F 19041ADD 1A4C1A7A 19EF1A1E  [?.......z.L.....]
009637090 0000160C 00000000 00000000 00000000  [................]
0096370A0 00000000 00000000 00000000 00000000  [................]
        Repeat 348 times
009638670 0309002C 062350C2 4C4C494D 43055245  [,....P#.MILLER.C]
009638680 4B52454C 534EC203 01B67707 01010117  [LERK..NS.w......]
009638690 FF16C202 080BC102 2057454E 4B524F59  [........NEW YORK]
0096386A0 0309012C 062350C2 4C4C494D 43055245  [,....P#.MILLER.C]
0096386B0 4B52454C 534EC203 01B67707 01010117  [LERK..NS.w......]
0096386C0 331EC203 0BC102FF 57454E08 524F5920  [...3.....NEW YOR]
0096386D0 09012C4B 2350C203 4C494D06 0552454C  [K,....P#.MILLER.]
0096386E0 52454C43 4EC2034B B6770753 01011701  [CLERK..NS.w.....]
0096386F0 16C20201 0BC102FF 57454E08 524F5920  [.........NEW YOR]
009638700 09012C4B 2350C203 4C494D06 0552454C  [K,....P#.MILLER.]
009638710 52454C43 4EC2034B B6770753 01011701  [CLERK..NS.w.....]
009638720 1EC20301 C102FF33 454E080B 4F592057  [....3.....NEW YO]
009638730 012C4B52 50C20309 494D0623 52454C4C  [RK,....P#.MILLER]
009638740 454C4305 C2034B52 7707534E 011701B6  [.CLERK..NS.w....]
009638750 C2020101 C102FF16 454E080B 4F592057  [..........NEW YO]
009638760 012C4B52 50C20309 494D0623 52454C4C  [RK,....P#.MILLER]
009638770 454C4305 C2034B52 7707534E 011701B6  [.CLERK..NS.w....]
009638780 C2030101 02FF0B0E 4E080BC1 59205745  [...........NEW Y]
009638790 2C4B524F C2030901 4D062350 454C4C49  [ORK,....P#.MILLE]
0096387A0 4C430552 034B5245 07534EC2 1701B677  [R.CLERK..NS.w...]
0096387B0 02010101 02FF16C2 4E080BC1 59205745  [...........NEW Y]
0096387C0 2C4B524F C2030901 4D062350 454C4C49  [ORK,....P#.MILLE]
0096387D0 4C430552 034B5245 07534EC2 1701B677  [R.CLERK..NS.w...]
0096387E0 03010101 FF0B0EC2 080BC102 2057454E  [............NEW ]
0096387F0 4B524F59 0309002C 062350C2 4C4C494D  [YORK,....P#.MILL]
009638800 43055245 4B52454C 534EC203 01B67707  [ER.CLERK..NS.w..]
009638810 01010117 FF16C202 080BC102 2057454E  [............NEW ]
009638820 4B524F59 0309012C 062350C2 4C4C494D  [YORK,....P#.MILL]
009638830 43055245 4B52454C 534EC203 01B67707  [ER.CLERK..NS.w..]
009638840 01010117 0B0EC203 0BC102FF 57454E08  [.............NEW]
009638850 524F5920 09002C4B 2350C203 4C494D06  [ YORK,....P#.MIL]
009638860 0552454C 52454C43 4EC2034B B6770753  [LER.CLERK..NS.w.]
009638870 01011701 16C20201 0BC102FF 57454E08  [.............NEW]
009638880 524F5920 09012C4B 2350C203 4C494D06  [ YORK,....P#.MIL]
009638890 0552454C 52454C43 4EC2034B B6770753  [LER.CLERK..NS.w.]
0096388A0 01011701 0EC20301 C102FF0B 454E080B  [..............NE]
0096388B0 4F592057 002C4B52 4AC20309 4D530546  [W YORK,....JF.SM]
0096388C0 05485449 52454C43 50C2034B B4770703  [ITH.CLERK..P..w.]
0096388D0 0101110C 0BC20301 C102FF15 41440615  [..............DA]
0096388E0 53414C4C 0309012C 05464AC2 54494D53  [LLAS,....JF.SMIT]
0096388F0 4C430548 034B5245 070350C2 110CB477  [H.CLERK..P..w...]
009638900 FF010101 15C102FF 4C414406 2C53414C  [.........DALLAS,]
009638910 C2030901 5305464A 4854494D 454C4305  [....JF.SMITH.CLE]
009638920 C2034B52 77070350 01110CB4 C2030101  [RK..P..w........]
009638930 02FF150B 440615C1 414C4C41 09012C53  [.......DALLAS,..]
009638940 464AC203 494D5305 43054854 4B52454C  [..JF.SMITH.CLERK]
009638950 0350C203 0CB47707 01010111 C102FFFF  [..P..w..........]
009638960 41440615 53414C4C 0309002C 04284FC2  [..DALLAS,....O(.]
009638970 474E494B 45525009 45444953 07FF544E  [KING.PRESIDENT..]
009638980 110BB577 02010101 02FF38C2 4E080BC1  [w........8.....N]
009638990 59205745 2C4B524F C2030901 4B04284F  [EW YORK,....O(.K]
0096389A0 09474E49 53455250 4E454449 7707FF54  [ING.PRESIDENT..w]
0096389B0 01110BB5 FFFF0101 080BC102 2057454E  [............NEW ]
0096389C0 4B524F59 0309002C 05434CC2 454E4F4A  [YORK,....LC.JONE]
0096389D0 414D0753 4547414E 4FC20352 B5770728  [S.MANAGER..O(.w.]
0096389E0 01010204 21C20301 C102FF0B 41440615  [.......!......DA]
0096389F0 53414C4C 0309012C 05434CC2 454E4F4A  [LLAS,....LC.JONE]
009638A00 414D0753 4547414E 4FC20352 B5770728  [S.MANAGER..O(.w.]
009638A10 01010204 1AC20201 15C102FF 4C414406  [.............DAL]
009638A20 2C53414C C2030900 4D062350 454C4C49  [LAS,....P#.MILLE]
009638A30 4C430552 034B5245 07534EC2 1701B677  [R.CLERK..NS.w...]
009638A40 02010101 02FF16C2 4E080BC1 59205745  [...........NEW Y]
009638A50 2C4B524F C2030900 46040350 0744524F  [ORK,....P..FORD.]
009638A60 4C414E41 03545359 07434CC2 030CB577  [ANALYST..LC.w...]
009638A70 03010101 FF0B21C2 0615C102 4C4C4144  [.....!......DALL]
009638A80 002C5341 50C20209 4D414A05 43055345  [AS,....P.JAMES.C]
009638A90 4B52454C 634DC203 0CB57707 01010103  [LERK..Mc.w......]
009638AA0 1F11C203 1FC102FF 49484307 4F474143  [.........CHICAGO]
009638AB0 0309002C 054D4FC2 4D414441 4C430553  [,....OM.ADAMS.CL]
009638AC0 034B5245 07594EC2 1705BB77 03010101  [ERK..NY.w.......]
009638AD0 FF0B0EC2 0615C102 4C4C4144 002C5341  [........DALLAS,.]
009638AE0 4FC20309 5554062D 52454E52 4C415308  [...O-.TURNER.SAL]
009638AF0 414D5345 4DC2034E B5770763 01010809  [ESMAN..Mc.w.....]
009638B00 16C20301 02800151 43071FC1 41434948  [....Q......CHICA]
009638B10 012C4F47 4FC20309 494B0428 5009474E  [GO,....O(.KING.P]
009638B20 49534552 544E4544 B57707FF 0101110B  [RESIDENT..w.....]
009638B30 38C20201 0BC102FF 57454E08 524F5920  [...8.....NEW YOR]
009638B40 09002C4B 594EC203 4F435305 41075454  [K,....NY.SCOTT.A]
009638B50 594C414E C2035453 7707434C 011304BB  [NALYST..LC.w....]
009638B60 C2030101 02FF0B21 440615C1 414C4C41  [....!......DALLA]
009638B70 09002C53 534EC203 414C4305 4D074B52  [S,....NS.CLARK.M]
009638B80 47414E41 C2035245 7707284F 010906B5  [ANAGER..O(.w....]
009638B90 C2030101 02FF331E 4E080BC1 59205745  [.....3.....NEW Y]
009638BA0 2C4B524F C2030900 4205634D 454B414C  [ORK,....Mc.BLAKE]
009638BB0 4E414D07 52454741 284FC203 05B57707  [.MANAGER..O(.w..]
009638BC0 01010101 1F21C203 1FC102FF 49484307  [......!......CHI]
009638BD0 4F474143 0309002C 06374DC2 5452414D  [CAGO,....M7.MART]
009638BE0 53084E49 53454C41 034E414D 07634DC2  [IN.SALESMAN..Mc.]
009638BF0 1C09B577 03010101 021F11C2 C1020FC2  [w...............]
009638C00 4843071F 47414349 09002C4F 434CC203  [..CHICAGO,....LC]
009638C10 4E4F4A05 4D075345 47414E41 C2035245  [.JONES.MANAGER..]
009638C20 7707284F 010204B5 C2030101 02FF0B21  [O(.w........!...]
009638C30 440615C1 414C4C41 09002C53 164CC203  [...DALLAS,....L.]
009638C40 52415704 41530844 4D53454C C2034E41  [.WARD.SALESMAN..]
009638C50 7707634D 011602B5 C2030101 C2021F11  [Mc.w............]
009638C60 1FC10206 49484307 4F474143 0309002C  [.....CHICAGO,...]
009638C70 05644BC2 454C4C41 4153084E 4D53454C  [.Kd.ALLEN.SALESM]
009638C80 C2034E41 7707634D 011402B5 C2030101  [AN..Mc.w........]
009638C90 C2025114 1FC10204 49484307 4F474143  [.Q.......CHICAGO]
009638CA0 0309012C 05464AC2 54494D53 4C430548  [,....JF.SMITH.CL]
009638CB0 034B5245 070350C2 110CB477 03010101  [ERK..P..w.......]
009638CC0 FF150BC2 0615C102 4C4C4144 002C5341  [........DALLAS,.]
009638CD0 50C20308 4F460403 41074452 594C414E  [...P..FORD.ANALY]
009638CE0 C2035453 7707434C 01030CB5 C2030101  [ST..LC.w........]
009638CF0 02FF0B21 002C15C1 4FC20308 4441054D  [!.....,....OM.AD]
009638D00 05534D41 52454C43 4EC2034B BB770759  [AMS.CLERK..NY.w.]
009638D10 01011705 0EC20301 C102FF0B 08002C15  [.............,..]
009638D20 2D4FC203 52555406 0852454E 454C4153  [..O-.TURNER.SALE]
009638D30 4E414D53 634DC203 09B57707 01010108  [SMAN..Mc.w......]
009638D40 5113C203 C1028001 08002C1F 594EC203  [...Q.....,....NY]
009638D50 4F435305 41075454 594C414E C2035453  [.SCOTT.ANALYST..]
009638D60 7707434C 011304BB C2030101 02FF0B21  [LC.w........!...]
009638D70 002C15C1 4BC20308 4C410564 084E454C  [..,....Kd.ALLEN.]
009638D80 454C4153 4E414D53 634DC203 02B57707  [SALESMAN..Mc.w..]
009638D90 01010114 5114C203 0204C202 002C1FC1  [.......Q......,.]
009638DA0 4AC20308 4D530546 05485449 52454C43  [...JF.SMITH.CLER]
009638DB0 50C2034B B4770703 0101110C 0BC20301  [K..P..w.........]
009638DC0 C102FF0B 08002C15 2350C203 4C494D06  [.....,....P#.MIL]
009638DD0 0552454C 52454C43 4EC2034B B6770753  [LER.CLERK..NS.w.]
009638DE0 01011701 13C20201 0BC102FF 0308002C  [............,...]
009638DF0 040350C2 44524F46 414E4107 5453594C  [.P..FORD.ANALYST]
009638E00 434CC203 0CB57707 01010103 FF1FC202  [..LC.w..........]
009638E10 2C15C102 C2020800 414A0550 0553454D  [...,....P.JAMES.]
009638E20 52454C43 4DC2034B B5770763 0101030C  [CLERK..Mc.w.....]
009638E30 0EC20301 C102FF1F 08002C1F 4D4FC203  [.........,....OM]
009638E40 41444105 4305534D 4B52454C 594EC203  [.ADAMS.CLERK..NY]
009638E50 05BB7707 01010117 FF0CC202 2C15C102  [.w.............,]
009638E60 C2030800 54062D4F 454E5255 41530852  [....O-.TURNER.SA]
009638E70 4D53454C C2034E41 7707634D 010809B5  [LESMAN..Mc.w....]
009638E80 C2020101 02800110 002C1FC1 4FC20308  [..........,....O]
009638E90 494B0428 5009474E 49534552 544E4544  [(.KING.PRESIDENT]
009638EA0 B57707FF 0101110B 38C20201 0BC102FF  [..w........8....]
009638EB0 0308002C 05594EC2 544F4353 4E410754  [,....NY.SCOTT.AN]
009638EC0 53594C41 4CC20354 BB770743 01011304  [ALYST..LC.w.....]
009638ED0 1FC20201 15C102FF 0308002C 05534EC2  [........,....NS.]
009638EE0 52414C43 414D074B 4547414E 4FC20352  [CLARK.MANAGER..O]
009638EF0 B5770728 01010906 1EC20301 C102FF33  [(.w.........3...]
009638F00 08002C0B 634DC203 414C4205 4D07454B  [.,....Mc.BLAKE.M]
009638F10 47414E41 C2035245 7707284F 010105B5  [ANAGER..O(.w....]
009638F20 C2030101 02FF1F21 002C1FC1 4DC20308  [....!.....,....M]
009638F30 414D0637 4E495452 4C415308 414D5345  [7.MARTIN.SALESMA]
009638F40 4DC2034E B5770763 01011C09 11C20301  [N..Mc.w.........]
009638F50 0FC2021F 2C1FC102 C2030800 4A05434C  [.......,....LC.J]
009638F60 53454E4F 4E414D07 52454741 284FC203  [ONES.MANAGER..O(]
009638F70 04B57707 01010102 5620C203 15C102FF  [.w........ V....]
009638F80 0308002C 04164CC2 44524157 4C415308  [,....L..WARD.SAL]
009638F90 414D5345 4DC2034E B5770763 01011602  [ESMAN..Mc.w.....]
009638FA0 11C20301 06C2021F 2C1FC102 C2030800  [...........,....]
009638FB0 4105644B 4E454C4C 4C415308 414D5345  [Kd.ALLEN.SALESMA]
009638FC0 4DC2034E B5770763 01011402 11C20201  [N..Mc.w.........]
009638FD0 0204C202 002C1FC1 4AC20308 4D530546  [......,....JF.SM]
009638FE0 05485449 52454C43 50C2034B B4770703  [ITH.CLERK..P..w.]
009638FF0 0101110C 09C20201 15C102FF 7D98060A  [...............}]
Block header dump:  0x01000097
 Object id on Block? Y
 seg/obj: 0x11dec  csc: 0x00.274438  itc: 2  flg: E  typ: 1 - DATA
     brn: 0  bdba: 0x1000090 ver: 0x01 opc: 0
     inc: 0  exflg: 0
 
 Itl           Xid                  Uba         Flag  Lck        Scn/Fsc
0x01   0x0003.01a.00000643  0x00c1aec1.0155.2b  C---    0  scn 0x0000.002286da
0x02   0x0004.010.00000563  0x00c1a8dd.00f1.2a  C---    0  scn 0x0000.00228967
bdba: 0x01000097
data_block_dump,data header at 0x9637064
===============
tsiz: 0x1f98
hsiz: 0x2e
pbl: 0x09637064
     76543210
flag=--------
ntab=1
nrow=14
frre=-1
fsbo=0x2e
fseo=0x160c
avsp=0x1cbf
tosp=0x1cbf
0xe:pti[0]	nrow=14	offs=0
0x12:pri[0]	offs=0x1852
0x14:pri[1]	offs=0x1c08
0x16:pri[2]	offs=0x1bd5
0x18:pri[3]	offs=0x1960
0x1a:pri[4]	offs=0x1b70
0x1c:pri[5]	offs=0x1b3f
0x1e:pri[6]	offs=0x1b0d
0x20:pri[7]	offs=0x1add
0x22:pri[8]	offs=0x1904
0x24:pri[9]	offs=0x1a7a
0x26:pri[10]	offs=0x1a4c
0x28:pri[11]	offs=0x1a1e
0x2a:pri[12]	offs=0x19ef
0x2c:pri[13]	offs=0x160c
block_row_dump:
tab 0, row 0, @0x1852
tl: 46 fb: --H-FL-- lb: 0x0  cc: 9
col  0: [ 3]  c2 4a 46
col  1: [ 5]  53 4d 49 54 48
col  2: [ 5]  43 4c 45 52 4b
col  3: [ 3]  c2 50 03
col  4: [ 7]  77 b4 0c 11 01 01 01
col  5: [ 3]  c2 0b 15
col  6: *NULL*
col  7: [ 2]  c1 15
col  8: [ 6]  44 41 4c 4c 41 53
tab 0, row 1, @0x1c08
tl: 52 fb: --H-FL-- lb: 0x0  cc: 9
col  0: [ 3]  c2 4b 64
col  1: [ 5]  41 4c 4c 45 4e
col  2: [ 8]  53 41 4c 45 53 4d 41 4e
col  3: [ 3]  c2 4d 63
col  4: [ 7]  77 b5 02 14 01 01 01
col  5: [ 3]  c2 14 51
col  6: [ 2]  c2 04
col  7: [ 2]  c1 1f
col  8: [ 7]  43 48 49 43 41 47 4f
tab 0, row 2, @0x1bd5
tl: 51 fb: --H-FL-- lb: 0x0  cc: 9
col  0: [ 3]  c2 4c 16
col  1: [ 4]  57 41 52 44
col  2: [ 8]  53 41 4c 45 53 4d 41 4e
col  3: [ 3]  c2 4d 63
col  4: [ 7]  77 b5 02 16 01 01 01
col  5: [ 3]  c2 11 1f
col  6: [ 2]  c2 06
col  7: [ 2]  c1 1f
col  8: [ 7]  43 48 49 43 41 47 4f
tab 0, row 3, @0x1960
tl: 48 fb: --H-FL-- lb: 0x0  cc: 9
col  0: [ 3]  c2 4c 43
col  1: [ 5]  4a 4f 4e 45 53
col  2: [ 7]  4d 41 4e 41 47 45 52
col  3: [ 3]  c2 4f 28
col  4: [ 7]  77 b5 04 02 01 01 01
col  5: [ 3]  c2 21 0b
col  6: *NULL*
col  7: [ 2]  c1 15
col  8: [ 6]  44 41 4c 4c 41 53
tab 0, row 4, @0x1b70
tl: 53 fb: --H-FL-- lb: 0x0  cc: 9
col  0: [ 3]  c2 4d 37
col  1: [ 6]  4d 41 52 54 49 4e
col  2: [ 8]  53 41 4c 45 53 4d 41 4e
col  3: [ 3]  c2 4d 63
col  4: [ 7]  77 b5 09 1c 01 01 01
col  5: [ 3]  c2 11 1f
col  6: [ 2]  c2 0f
col  7: [ 2]  c1 1f
col  8: [ 7]  43 48 49 43 41 47 4f
tab 0, row 5, @0x1b3f
tl: 49 fb: --H-FL-- lb: 0x0  cc: 9
col  0: [ 3]  c2 4d 63
col  1: [ 5]  42 4c 41 4b 45
col  2: [ 7]  4d 41 4e 41 47 45 52
col  3: [ 3]  c2 4f 28
col  4: [ 7]  77 b5 05 01 01 01 01
col  5: [ 3]  c2 21 1f
col  6: *NULL*
col  7: [ 2]  c1 1f
col  8: [ 7]  43 48 49 43 41 47 4f
tab 0, row 6, @0x1b0d
tl: 50 fb: --H-FL-- lb: 0x0  cc: 9
col  0: [ 3]  c2 4e 53
col  1: [ 5]  43 4c 41 52 4b
col  2: [ 7]  4d 41 4e 41 47 45 52
col  3: [ 3]  c2 4f 28
col  4: [ 7]  77 b5 06 09 01 01 01
col  5: [ 3]  c2 1e 33
col  6: *NULL*
col  7: [ 2]  c1 0b
col  8: [ 8]  4e 45 57 20 59 4f 52 4b
tab 0, row 7, @0x1add
tl: 48 fb: --H-FL-- lb: 0x0  cc: 9
col  0: [ 3]  c2 4e 59
col  1: [ 5]  53 43 4f 54 54
col  2: [ 7]  41 4e 41 4c 59 53 54
col  3: [ 3]  c2 4c 43
col  4: [ 7]  77 bb 04 13 01 01 01
col  5: [ 3]  c2 21 0b
col  6: *NULL*
col  7: [ 2]  c1 15
col  8: [ 6]  44 41 4c 4c 41 53
tab 0, row 8, @0x1904
tl: 47 fb: --H-FL-- lb: 0x0  cc: 9
col  0: [ 3]  c2 4f 28
col  1: [ 4]  4b 49 4e 47
col  2: [ 9]  50 52 45 53 49 44 45 4e 54
col  3: *NULL*
col  4: [ 7]  77 b5 0b 11 01 01 01
col  5: [ 2]  c2 38
col  6: *NULL*
col  7: [ 2]  c1 0b
col  8: [ 8]  4e 45 57 20 59 4f 52 4b
tab 0, row 9, @0x1a7a
tl: 52 fb: --H-FL-- lb: 0x0  cc: 9
col  0: [ 3]  c2 4f 2d
col  1: [ 6]  54 55 52 4e 45 52
col  2: [ 8]  53 41 4c 45 53 4d 41 4e
col  3: [ 3]  c2 4d 63
col  4: [ 7]  77 b5 09 08 01 01 01
col  5: [ 3]  c2 16 51
col  6: [ 1]  80
col  7: [ 2]  c1 1f
col  8: [ 7]  43 48 49 43 41 47 4f
tab 0, row 10, @0x1a4c
tl: 46 fb: --H-FL-- lb: 0x0  cc: 9
col  0: [ 3]  c2 4f 4d
col  1: [ 5]  41 44 41 4d 53
col  2: [ 5]  43 4c 45 52 4b
col  3: [ 3]  c2 4e 59
col  4: [ 7]  77 bb 05 17 01 01 01
col  5: [ 3]  c2 0e 0b
col  6: *NULL*
col  7: [ 2]  c1 15
col  8: [ 6]  44 41 4c 4c 41 53
tab 0, row 11, @0x1a1e
tl: 46 fb: --H-FL-- lb: 0x0  cc: 9
col  0: [ 2]  c2 50
col  1: [ 5]  4a 41 4d 45 53
col  2: [ 5]  43 4c 45 52 4b
col  3: [ 3]  c2 4d 63
col  4: [ 7]  77 b5 0c 03 01 01 01
col  5: [ 3]  c2 11 1f
col  6: *NULL*
col  7: [ 2]  c1 1f
col  8: [ 7]  43 48 49 43 41 47 4f
tab 0, row 12, @0x19ef
tl: 47 fb: --H-FL-- lb: 0x0  cc: 9
col  0: [ 3]  c2 50 03
col  1: [ 4]  46 4f 52 44
col  2: [ 7]  41 4e 41 4c 59 53 54
col  3: [ 3]  c2 4c 43
col  4: [ 7]  77 b5 0c 03 01 01 01
col  5: [ 3]  c2 21 0b
col  6: *NULL*
col  7: [ 2]  c1 15
col  8: [ 6]  44 41 4c 4c 41 53
tab 0, row 13, @0x160c
tl: 48 fb: --H-FL-- lb: 0x0  cc: 9
col  0: [ 3]  c2 50 23
col  1: [ 6]  4d 49 4c 4c 45 52
col  2: [ 5]  43 4c 45 52 4b
col  3: [ 3]  c2 4e 53
col  4: [ 7]  77 b6 01 17 01 01 01
col  5: [ 2]  c2 16
col  6: *NULL*
col  7: [ 2]  c1 0b
col  8: [ 8]  4e 45 57 20 59 4f 52 4b
end_of_block_dump
End dump data block from file D:\APP\CZILE\ORADATA\ORCL\USERS01.DBF minblk 151 maxblk 151
